:0300000002249A3D
:0C249A00787FE4F6D8FD75815502129D94
:10213C0077726974654E756D202562752072616EBB
:10214C0064203D202562750A00726561644E756DD0
:10215C00202562752072616E64203D202562750A0F
:09216C000001020408102040806B
:10129D00E4F5247528FF43BA80121A14122416128D
:1012AD00242712202D121639121C481222C8122280
:1012BD005DD2AF1211578E228F2312181B8F24EF80
:1012CD006401705D90037EE0FF7E0012237BE4F5E8
:1012DD0026C3E526940A748094805033121FE08F44
:1012ED002574602526F582E43403F583E0FF7E0046
:1012FD00AD251200A67BFF7A21793C85262C85250C
:10130D002D12069E7FE87E031223C6052680C2C3DA
:10131D00E526940A7480948040077F647E00122233
:10132D0082E5246402704DF527C3E527940A748085
:10133D009480502E74602527F582E43403F583E004
:10134D00FF7E001222EA8F257BFF7A2179558527B2
:10135D002C85252D12069E7FE87E031223C60527B8
:10136D0080C7C3E527940A7480948040077F647E0C
:10137D0000122282AF247E00EF64037004F527F57E
:10138D0026EF64044E7030F526C3E526940A74806A
:10139D00948050237B007A007928752E01AD267F2D
:1013AD00A01221AD7BFF7A21793C85262C85282D35
:1013BD0012069E052680D27F017E001223C6AF2322
:0813CD00AE221214A90212C0A5
:101A1400752AFFE4F529FB7A0079297F05120EE087
:101A24007B007A0079297F01120EE07B007A00792D
:101A3400297F02120EE07B007A0079297F03120EBF
:101A4400E07B007A0079297F04120EE07B007A00A3
:101A540079297F06120EE07B007A0079297F07122C
:101A64000EE07B007A007929E4FF120EE043910135
:031A74005392FE8C
:011A7700224C
:10202D007529017B007A007929E4FF122175E4FD01
:10203D007F01121DA17529017B007A0079297F018D
:10204D00122175E4FD7F01122345E4FD7F0112236A
:10205D0045E4FD7F01120066E4FD7F011223099026
:06206D00FD03E04430F029
:01207300224A
:10163900E4F529752A01F52B752CA2752D40752F16
:1016490001FB7A007929FF120C58E4FD7F01121C75
:10165900F7E4F529752A01F52B752CA2752D40752E
:101669002F01FB7A0079297F01120C58E4FD7F01D3
:10167900121D4C752A01E4F52B752CA2752D40F528
:101689002E752F01FB7A0079297F02120C58E4FD8F
:101699007F01122209E4F52AF52B752CB1752DE08D
:1016A900F52E752F01FB7A0079297F03120C58E476
:1016B900FD7F01122233E4F52AF52B752CB1752D26
:1016C900E0F52E752F01FB7A0079297F04120C5859
:0716D900E4FD7F010221DEA8
:101C4800752940752A01752E00752DC2752C0175F0
:101C58002B00753001E4F531FB7A0079297F0112F8
:101C680001467D017F01121EA0752940752E007561
:101C78002DC2752C01752B007530017B007A007917
:101C8800297F021201467D017F01121CA153A23F48
:081C9800E5BA54FE4401F5BA5F
:011CA0002221
:1022C80075291FE4F52C752D01752A0F752B01FB57
:1022D8007A007929121A787F01122480E4FDFF021E
:0222E8001E4B8B
:10225D00752B01752A01E4F52C752910FB7A00798F
:10226D00291200C6E4FBFD7F011219A5E5BA54CF72
:04227D004410F5BA5A
:01228100223A
:10241600752A087529037B007A0079297F05020E43
:01242600E0D5
:102282008E2E8F2FD3E52F9400E52E94004013B2AB
:10229200CB7F017E001223C6E52F152F70E6152E87
:0322A20080E222B5
:10242700752A3CE4F529FB7A0079297F03020EE03F
:10181B00E4F52DF52CF52BF52A20B2387F0AFE12B4
:10182B0023C620B22575290120B21F782A120BCCB2
:10183B007BA07A8679017800C3120B7850EA752960
:10184B000B7F0A7E0012228280DE7F0A7E0012222C
:10185B0082AF292220B3177F0A7E001223C620B342
:10186B000330B3FD7F0A7E001222827F022220B456
:10187B00177F0A7E001223C620B40330B4FD7F0A03
:10188B007E001222827F032220B5177F0A7E001270
:10189B0023C620B50330B5FD7F0A7E001222827F5E
:0418AB0004227F0094
:0118AF002216
:1023AE003F065B4F666D7D077F6F777C395E7900E8
:0823BE00FEFDFBF7EFDFBF7F1E
:10236100E4FEEEC3940874809480500DC2FFEF2503
:09237100E0FF92C1D2FF0E80E9E9
:01237A002240
:10239500AC07ED9023AE93FF122361EC9023BD9320
:0923A500FF122361C2FED2FE22E8
:0414A900AB07AA06DD
:1014AD007C277D101209F08F297C277D10AF03AEAC
:1014BD00021209F07E037FE8CFCDCFCECCCE12093C
:1014CD00F08F2A7C037DE8AF03AE021209F07E0097
:1014DD007F64CFCDCFCECCCE1209F08F2B7C007D8B
:1014ED0064AF03AE021209F07E007F0ACFCDCFCEDE
:1014FD00CCCE1209F08F2CAE02AF037C007D0A1208
:10150D0009F08D2DE529600DFD7F041223957F01D6
:10151D007E001223C6E52A7004E529600EAD2A7FF0
:10152D00051223957F017E001223C6E52B7008E579
:10153D002A7004E529600EAD2B7F061223957F01DD
:10154D007E001223C6E52C700CE52B7008E52A7081
:10155D0004E529600EAD2C7F071223957F017E00D7
:0A156D001223C6AD2D7F080223955E
:0924E60041542B54494D453D00C1
:0213D5008D3356
:1013D700E4F534F535E53324FFFFE434FFFEC3E5D8
:1013E700359FE5349E40030214A8E4F536F537C36C
:1013F700E5339535FFE49534CF24FFCF34FFFEC3A3
:10140700E5379FE5369E400302149AE5372401FF2E
:10141700E43536FEEF25E0FFEE338F82F583120ABF
:1014270045FDACF0E53725E0FFE536338F82F583E0
:10143700120A45FFAEF0D39DEE9C40498E388F3996
:10144700E5372401FFE43536FEEF25E0FFEE338F65
:1014570082F583120A45FDE53725E0FFE536338F30
:1014670082F583E5F08DF0120A7DE5372401FFE46C
:101477003536FEEF25E0FFEE338F82F583E53885BD
:1014870039F0120A7D0537E53760030213F6053692
:101497000213F60535E53560030213DC0534021344
:0114A700DC68
:0114A8002221
:1018B000D3E50C9400748094804032150CE50C70D4
:1018C0002CD3E50B940074809480401EE4F554E51D
:1018D00054C3950B501474002554F582E43400F57C
:1018E00083E0FF1224C8055480E5E4F50BD3E5112D
:1018F00094007480948040321511E511702CD3E56A
:1019000010940074809480401EE4F554E554C3950F
:1019100010501474802554F582E43400F583E0FF00
:0A1920001224BE055480E5E4F51022
:01192A00229A
:081577008B298A2A892B8D2C97
:10157F00E4F52DF52EF532F531F530F52F7F01FE1F
:10158F001223C6E4F52DF52EC3E52E952CE52D94EB
:10159F00005029E4FF12192BAD07E52E25E0FFE5DA
:1015AF002D33AB29AA2AA92B8F82F583EE8DF0124A
:1015BF000A7D052EE52E70D0052D80CCAB29AA2AE9
:1015CF00A92BAD2C1213D5E4F52DF52EE52E240AFB
:1015DF00FFE4352DFEEF25E0FFEE33AB29AA2AA954
:1015EF002B8F82F583120A45FFAEF0E4FCFDE53246
:1015FF002FF532E5313EF531ED3530F530EC352F45
:10160F00F52F052EE52E7002052D641E452D70BC9D
:10161F00AF32AE31AD30AC2FE47B1EFAF9F8120ABF
:09162F00E68F328E318D308C2FD4
:01163800228F
:0C24A600726573756C743A2025640A009E
:10115700C3E54B9542FFE54A9541FEE5499540FDBC
:10116700E548953FFCE47B607AEAF9F8C3120B780F
:10117700400302128D854B42854A41854940854887
:101187003FE4F545C3E545943274809480501BE4F1
:10119700FF12192BE54525E024FCF582E43402F51E
:1011A70083EEF0A3EFF0054580DA7B017A0279FC44
:1011B7007D321213D5E4F545C3E545941E7480943A
:1011C70080400302128DE54525E02410F582E434C2
:1011D70003F583E0FEA3E0FFE54525E024C0F582A3
:1011E700E43402F583EEF0A3EFF0E54525E024C0F3
:1011F700F582E43402F583E0FEA3E0F544EEF5431F
:10120700E54525E0FD7B007A007944752E017FA036
:101217001221AD7F057E001223C6E54525E004FDBA
:101227007B007A007943752E017FA01221AD7F05DF
:101237007E001223C6E54525E0FD7B007A00794450
:10124700752E017FA01221027F057E001223C6E5BD
:101257004525E004FD7B007A007943752E017FA0C8
:10126700122102E543F546E544F5477F057E001266
:1012770023C67BFF7A2479A685462C85472D12063F
:101287009E05450211BF7B017A0279FC7D3212155A
:06129700778E3D8F3E2220
:0D004600E4F5C7F5C5F5C675C380F5C42205
:1022EA0075C78075F51875C5018FC48EC375C65A32
:0E22FA0075C6A500000000AFC21200467E00AF
:0123080022B2
:1000A60075C78075F51875C5028FC48EC38DC27568
:0C00B600C65A75C6A500000000020046F6
:10237B0075C78075F51875C5038FC48EC375C65A9E
:0A238B0075C6A50000000002004620
:100EE000EFD394077480948040037FFF2212099807
:100EF000FED394037480948040037FFF22EF7044FC
:100F0000EE700B9000011209B1F452935294120941
:100F1000986401700B9000011209B14293F452944D
:100F2000120998FE6402700A9000011209B14293FE
:100F30004294EE6403700D9000011209B1FEF45268
:100F400093EE4294EF64017046120998FE700B9084
:100F500000011209B1F452915292EE6401700B90AB
:100F600000011209B14291F4529212099864027080
:100F70000A9000011209B142914292120998640349
:100F8000700D9000011209B1FEF45291EE4292EF01
:100F900064027046120998FE700B9000011209B1AC
:100FA000F452955296EE6401700B9000011209B153
:100FB0004295F452961209986402700A9000011248
:100FC00009B1429542961209986403700D90000190
:100FD0001209B1FEF45295EE4296EF640370461288
:100FE0000998FE700B9000011209B1F452B152B28F
:100FF000EE6401700B9000011209B142B1F452B2DB
:101000001209986402700A9000011209B142B142BB
:10101000B21209986403700D9000011209B1FEF438
:1010200052B1EE42B2EF64047046120998FE700BA2
:101030009000011209B1F452B352B4EE6401700B86
:101040009000011209B142B3F452B412099864023B
:10105000700A9000011209B142B342B412099864B7
:1010600003700D9000011209B1FEF452B3EE42B4C8
:10107000EF64057046120998FE700B90000112098A
:10108000B1F452C952CAEE6401700B90000112090A
:10109000B142C9F452CA1209986402700A90000160
:1010A0001209B142C942CA1209986403700D900036
:1010B000011209B1FEF452C9EE42CAEF640670464D
:1010C000120998FE700B9000011209B1F452CB5234
:1010D000CCEE6401700B9000011209B142CBF452C6
:1010E000CC1209986402700A9000011209B142CB37
:1010F00042CC1209986403700D9000011209B1FEF0
:10110000F452CBEE42CCEF64077049120998FF7E8F
:1011100000700B9000011209B1F452E152E2EF6449
:10112000014E700B9000011209B142E1F452E2123B
:1011300009986402700A9000011209B142E142E28A
:101140001209986403700D9000011209B1FFF45266
:07115000E1EF42E27F002203
:1023C6007D607C09ED1D70011C144C70F7EF1F70C9
:0623D600011E144E70EA26
:0123DC0022DE
:10217500EFD394017480948040037FFF22EF7010A9
:10218500C2891209987004C2888002D2887F002211
:10219500EF64017010C28B1209987004C28A800224
:0821A500D28A7F00227FFF2295
:101CF700EFFB7A00D394017480948040037FFF2226
:101D0700EDD394037480948040037FFF22EB4A70E5
:101D170004C2A98002D2A9ED700553B7FDC2B9ED7F
:101D2700FF7E006401700553B7FDD2B9EF64024E20
:101D3700700543B702C2B9EF64034E700543B7029B
:051D4700D2B97F00226B
:101D4C00EFFB7A00D394017480948040037FFF22D0
:101D5C00EDD394037480948040037FFF22EB4A7090
:101D6C0004C2AB8002D2ABED700553B7F7C2BBED2A
:101D7C00FF7E006401700553B7F7D2BBEF64024ECF
:101D8C00700543B708C2BBEF64034E700543B70838
:051D9C00D2BB7F002214
:10220900EFD394017480948040037FFF22EDD3942F
:10221900037480948040037FFF22EF25E025E0FFCF
:0A222900E5AF54FB4FF5AFE4FF22D0
:10223300EFD394017480948040037FFF22EDD39405
:10224300037480948040037FFF22EFC43354E0FF84
:0A225300E5AF54DF4FF5AFE4FF22C2
:1021DE00EFD394017480948040037FFF22EDD3945B
:1021EE00037480948040037FFF22EFC4333354C0C6
:0B21FE00FFE5AF54BF4FF5AFE4FF2238
:101DA100EFFB7A00D394017480948040037FFF227B
:101DB100EDD394037480948040037FFF22EB4A703B
:101DC10004C2A88002D2A8ED700553B7FEC2B8EDD7
:101DD100FF7E006401700553B7FED2B8EF64024E76
:101DE100700543B701C2B8EF64034E700543B701F4
:051DF100D2B87F0022C2
:101DF600EFFB7A00D394017480948040037FFF2226
:101E0600EDD394037480948040037FFF22EB4A70E5
:101E160004C2AA8002D2AAED700553B7FBC2BAED7E
:101E2600FF7E006401700553B7FBD2BAEF64024E21
:101E3600700543B704C2BAEF64034E700543B70496
:051E4600D2BA7F00226A
:10234500EFD394017480948040037FFF22EFC4543F
:0C235500F0FFE58F54EF4FF58FE4FF22FE
:10006600EFD394017480948040037FFF22EFC43362
:0D00760054E0FFE58F54DF4FF58FE4FF22CB
:10230900EFD394017480948040037FFF22EFC4339C
:0E2319003354C0FFE58F54BF4FF58FE4FF2211
:101E4B00EFFB7A00D394017480948040037FFF22D0
:101E5B00EDD394037480948040037FFF22EB4A7090
:101E6B0004C2AD8002D2ADED700553B7DFC2BDED3C
:101E7B00FF7E006401700553B7DFD2BDEF64024EE5
:101E8B00700543B720C2BDEF64034E700543B72006
:051E9B00D2BD7F002212
:101B9400EDFB7A00D394037480948040037FFF228A
:101BA400EF30E10543E620800353E6DFEF30E00544
:101BB40043E610800353E6EFEB4A700653B6DF5357
:101BC400B5DFED6401700653B6DF43B520EDFF7E4B
:101BD400006402700643B62053B5DFEF64034E7011
:0A1BE4000643B62043B5207F00221F
:1019A500EFD394017480948040037FFF22EBD3949E
:1019B500037480948040037FFF22EF64017012ED71
:1019C50090FE817006E0547FF08011E04480F08045
:1019D5000BEF700890FE83E054874DF0EBFF7E001F
:1019E500700653B6DF53B5DFEF64014E700653B68C
:1019F500DF43B520EF64024E700643B62053B5DFD2
:0F1A0500EF64034E700643B62043B5207F0022E6
:101EA000EFFB7A00D394017480948040037FFF227B
:101EB000EDD394037480948040037FFF22EB4A703B
:101EC00004C2AC8002D2ACED700553B7EFC2BCEDDA
:101ED000FF7E006401700553B7EFD2BCEF64024E81
:101EE000700543B710C2BCEF64034E700543B710D2
:051EF000D2BC7F0022BE
:101CA100EFD394017480948040037FFF22EDFB7A8F
:101CB10000D394037480948040037FFF22E5AF54E6
:101CC100FE4FF5AFEB4A700653B6FE53B5FEED6419
:101CD10001700653B6FE43B501EDFF7E006402704C
:101CE1000643B60153B5FEEF64034E700643B601D9
:061CF10043B5017F002253
:101ADC00EFD394017480948040037FFF22EDFB7A56
:101AEC0000D394037480948040037FFF22EF333340
:101AFC003354F8FFE5AF54F74FF5AFEB4A7006538C
:101B0C00EEFE53DFFEED6401700653EEFE43DF0183
:101B1C00EDFF7E006402700643EE0153DFFEEF64BE
:0D1B2C00034E700643EE0143DF017F0022EF
:101B3900EFD394017480948040037FFF22EDFB7AF8
:101B490000D394037480948040037FFF22EFC45430
:101B5900F0FFE5AF54EF4FF5AFEB4A700653EEFDDA
:101B690053DFFDED6401700653EEFD43DF02EDFF27
:101B79007E006402700643EE0253DFFDEF64034EFC
:0B1B8900700643EE0243DF027F0022E3
:101BEE00EFD394017480948040037FFF22EDFB7A43
:101BFE0000D394037480948040037FFF22EF25E08E
:101C0E00FFE5AF54FD4FF5AFEB4A700653B6FD53EB
:101C1E00B5FDED6401700653B6FD43B502EDFF7ED2
:101C2E00006402700643B60253B5FDEF64034E70B6
:0A1C3E000643B60243B5027F002200
:10178300EFD394817480948040037FFF22EBD39442
:10179300037480948040037FFF22EF247F603A0428
:1017A300706E90FEC4EDF0EBFF7E00700653B6FB47
:1017B30053B5FBEF64014E700653B6FB43B504EF1C
:1017C30064024E700643B60453B5FBEF64034E70D8
:1017D3004443B60443B504803C90FEE4EDF0EBFFD4
:1017E3007E00700653B6F753B5F7EF64014E7006EB
:1017F30053B6F743B508EF64024E700643B6085379
:10180300B5F7EF64034E700D43B60843B508800582
:0818130090FEE4EDF07F0022DD
:10207400EDFB7A00D3940374809480502FEB7006A8
:1020840053EEFB53DFFBEB64014A700653EEFB4354
:10209400DF04EB64024A700643EE0453DFFBEB6497
:1020A400034A700B43EE0443DF0480037FFF229056
:0720B400FE62EFF07F002245
:03000300022509CA
:06250900B280755501329D
:0300130002002ABE
:01002A0032A3
:0300530002004167
:01004100328C
:03005B0002250F6C
:06250F00B2837555043291
:0300830002002652
:0400260075550532D5
:030143000222A5F0
:1022A500C0E0C083C08290FD13E030E404E4F0B2E6
:1022B5008590FD13E030E504E4F0B286D082D0834A
:0322C500D0E03234
:100C5800AD07ED6003020CDEC28C120998FED39436
:100C6800037480948040037FFF22E58954FC4EF58D
:100C7800899000011209B1FED394027480948040D7
:100C8800037FFF22EEFF7E007006538E7F5389FBA1
:100C9800EF64014E7006438E805389FBEF64024E69
:100CA80070034389049000021209B1FFE58F54FED6
:100CB8004FF58F900003120A45E5F0F58C9000037C
:100CC800120A45F58A9000061209B17004C28C8098
:100CD80002D28C7F0022ED64016003020D6BC28E8C
:100CE800120998FED394037480948040037FFF22F6
:100CF800EEC454F0FFE58954CF4FF58990000112F6
:100D080009B1FED394027480948040037FFF22EEE1
:100D1800FF7E007006538EBF5389BFEF64014E708B
:100D280006438E405389BFEF64024E7003438940E7
:100D38009000021209B125E0FFE58F54FD4FF58FB1
:100D4800900003120A45E5F0F58D900003120A455C
:100D5800F58B9000061209B17004C28E8002D28E03
:100D68007F0022ED6402706B538EEF900001120930
:100D7800B1FF7E007006538EFB538EF7EF64014E71
:100D88007006438E04538EF7EF64024E7003438E51
:100D9800089000021209B125E025E0FFE58F54FB19
:100DA8004FF58F900003120A45E5F0F5D690000341
:100DB800120A45F5D79000051209B190FEA2F090ED
:100DC80000061209B1C454F0FFE58E54EF4FF58EBA
:100DD8007F0022ED6403707453D1F790000112096B
:100DE800B1FED394027480948040037FFF22EEFF0B
:100DF8007E00700653D1FD53D1FBEF64014E70069F
:100E080043D10253D1FBEF64024E700343D10490E7
:100E180000021209B1FFE5D154FE4FF5D19000034D
:100E2800120A45E5F0F5D4900003120A45F5D5906D
:100E380000051209B190FEA3F09000061209B13323
:100E4800333354F8FFE5D154F7020ED7ED6404604C
:100E580003020EDD53D17F9000011209B1FD7C0021
:100E6800D394027480948040037FFF22ED4C700677
:100E780053D1DF53D1BF9000011209B1640170064C
:100E880043D12053D1BF9000011209B1640270030D
:100E980043D1409000021209B1C454F0FFE5D15487
:100EA800EF4FF5D1900003120A45FDACF0ECF5D2F6
:100EB800AF058FD39000051209B190FEA4F0900001
:100EC800061209B1C43333335480FFE5D1547F4F40
:080ED800F5D17F00227FFF220B
:03000B00022327A6
:10232700C0E0C0D0E54B2401F54BE4354AF54AE45B
:0E2337003549F549E43548F548D0D0D0E032BC
:03001B0002005E82
:03005E00054C321C
:0300630002000692
:05000600B2ED054D32D2
:03009B0002000E52
:05000E00B2EC054E32CA
:0300A30002001642
:05001600B2EB054F32C2
:080146008F328B338A348935B6
:10014E00EF640160030202C4F508F509F50AF50B28
:10015E00F50CF536F53774402537F58274013536D2
:10016E00F583E4F00537E5377002053664804536D1
:10017E0070E4E4F536F53774002537F582740035F2
:10018E0036F583E4F00537E53770020536648045B1
:10019E003670E4AB33AA34A935120998FFE59854AA
:1001AE003F4FF598EF64C06008EF644060030202B1
:1001BE0073900002120B9C7F807E8D7D5B7C001203
:1001CE000AE68F3B8E3A8D398C38E4FFFE7D01FCBA
:1001DE00AB3BAA3AA939A838C3120B7840037FFF6C
:1001EE0022C3E4953BF53BE4953AF53A7401953913
:1001FE00F539E49538F538AB33AA34A935900001BA
:10020E001209B1FB7A006401702CC28E538EFE531C
:10021E0089BF5389CF438E40AF3BAE3AAD39AC3830
:10022E007808120B898F8D853B8BC2AB5389BF53D8
:10023E008FFDD28E8069EB64024A7026538EEF4397
:10024E008E01538EF7438E04AF3BAE3AAD39AC38C8
:10025E007808120B898FD6853BD753AFFB438E1090
:10026E00803D7FFF22AB33AA34A935120998FF7E59
:10027E000070149000081209B164017005438E20BD
:10028E00801D538EDF8018EF64804E701290000830
:10029E001209B164017005438780800353877FABD9
:1002AE0033AA34A9359000071209B17004C29C809C
:1002BE0002D29C7F0022E532640260030203C1F584
:1002CE000DF50EF50FF510F511F536F53774E02531
:1002DE0037F58274013536F583E4F00537E537706E
:1002EE000205366480453670E4E4F536F5377480E1
:1002FE002537F58274003536F583E4F00537E5379A
:10030E00700205366480453670E4AB33AA34A935E5
:10031E00120998FF7E0064C06005EF64407077EFAD
:10032E0064C04E7005439A808003539A7F900002FA
:10033E00120B9C7F807E8D7D5B7C00120AE68F3BCC
:10034E008E3A8D398C38E4FFFE7D01FCAB3BAA3A28
:10035E00A939A838C3120B7840037FFF22C3E49556
:10036E003BF53BE4953AF53A74019539F539E49548
:10037E0038F538538EEF538EF7438E04AF3BAE3ABB
:10038E00AD39AC387808120B898FD6853BD753AF71
:10039E00FB438E1080037FFF22AB33AA34A9359026
:1003AE0000071209B1C454F0FFE59A54EF4FF59AC5
:1003BE007F0022E532640360030204FDF512F5139B
:1003CE00F514F515F516F536F53774602537F58203
:1003DE0074023536F583E4F00537E53770020536DD
:1003EE006440453670E4E4F536F53774002537F58C
:1003FE008274013536F583E4F00537E53770020572
:10040E00366440453670E4AB33AA34A935120998E8
:10041E00FF7E0064C06008EF644060030204E0EFFA
:10042E0064C04E700543AC80800353AC7F900002D5
:10043E00120B9C7F807E8D7D5B7C00120AE68F3BCB
:10044E008E3A8D398C38E4FFFE7D01FCAB3BAA3A27
:10045E00A939A838C3120B7840037FFF22C3E49555
:10046E003BF53BE4953AF53A74019539F539E49547
:10047E0038F538AB33AA34A9359000011209B1FB17
:10048E007A006403701D43AC40AF3BAE3AAD39AC5D
:10049E00387808120B898FD4853BD553D1F043D1D0
:1004AE000A8032EB64024A7026538EEF53ACBF5370
:1004BE008EF7438E04AF3BAE3AAD39AC38780812A6
:1004CE000B898FD6853BD753AFFB438E1080067FAB
:1004DE00FF227FFF22AB33AA34A935900007120901
:1004EE00B1C454F0FFE5AC54EF4FF5AC7F0022E5FC
:1004FE003264046003020639F517F518F519F51A7A
:10050E00F51BF536F53774A02537F58274023536AE
:10051E00F583E4F00537E53770020536642045367D
:10052E0070E4E4F536F53774C02537F5827401357D
:10053E0036F583E4F00537E537700205366420455D
:10054E003670E4AB33AA34A935120998FF7E0064E5
:10055E00C06008EF6440600302061CEF64C04E707A
:10056E0005438480800353847F900002120B9C7F8E
:10057E00807E8D7D5B7C00120AE68F3B8E3A8D3934
:10058E008C38E4FFFE7D01FCAB3BAA3AA939A838B2
:10059E00C3120B7840037FFF22C3E4953BF53BE487
:1005AE00953AF53A74019539F539E49538F538AB45
:1005BE0033AA34A9359000011209B1FB7A00640404
:1005CE00701D438440AF3BAE3AAD39AC387808125B
:1005DE000B898FD2853BD353D10F43D1A08032EB01
:1005EE0064024A7026538EEF5384BF538EF7438EA8
:1005FE0004AF3BAE3AAD39AC387808120B898FD6C2
:10060E00853BD753AFFB438E1080067FFF227FFFC3
:10061E0022AB33AA34A9359000071209B1C454F0A5
:0D062E00FFE58454EF4FF5847F00227FFF2D
:01063B00229C
:0A24BE008F99750A01E50A70FC22EF
:10002E00120998FF600C1224BE740129F9E43AFA01
:03003E0080EE222F
:0A24C8008F9B750F01E50F70FC22D9
:1023DD00120998FF600C1224C8740129F9E43AFA25
:0323ED0080EE225D
:0A24D2008FAD751401E51470FC22B3
:1023F000120998FF600C1224D2740129F9E43AFA08
:0324000080EE2249
:0A24DC008F85751901E51970FC22C7
:10240300120998FF600C1224DC740129F9E43AFAEA
:0324130080EE2236
:05001E00AE070224C83A
:030023000220BBFD
:1020BB00C0E0C083C082C0D075D000C00730982468
:1020CB00C298C3E50B9480748094804003750B0019
:1020DB00AF0B050B74002FF582E43400F583E59903
:1020EB00F0750C05309905C299750A00D007D0D050
:0720FB00D082D083D0E03257
:03004300021F9306
:101F9300C0E0C083C082C0D075D000C007E59A30CE
:101FA300E025539AFEC3E510948074809480400327
:101FB300751000AF10051074802FF582E43400F51E
:101FC30083E59BF0751105E59A30E106539AFD759B
:0D1FD3000F00D007D0D0D082D083D0E032F4
:03008B00021EF55D
:101EF500C0E0C083C082C0D075D000C007E5AC5437
:101F050001602553ACFEC3E5159440748094804070
:101F150003751500AF15051574002FF582E434011E
:101F2500F583E5ADF0751605E5AC5402600653ACD6
:0F1F3500FD751400D007D0D0D082D083D0E03219
:03009300021F4405
:101F4400C0E0C083C082C0D075D000C007E584540F
:101F54000160255384FEC3E51A9420748094804064
:101F640003751A00AF1A051A74C02FF582E4340100
:101F7400F583E585F0751B05E584540260065384FA
:0F1F8400FD751900D007D0D0D082D083D0E032C5
:101A78009000011209B1FFE5DE54F04FF5DE900049
:101A8800021209B1C43354E0FFE5DE54DF4FF5DE3E
:101A9800120998D3941F74809480503790000312D1
:101AA80009B1FFD3940174809480502790000412E8
:101AB80009B1FED39403748094805017EEC4335454
:101AC800E0FEEFC433333354804EFF1209984F9031
:041AD800FEA8F02252
:0D248000EF6401700443BC802253BC7F2236
:10192B00EFD3940F7480948040028069E4F5BDF589
:10193B00BEE5BC54F044404FF5BC00000000000075
:10194B0000000000E4FDEDC394FA748094805045D0
:10195B00E5BC30E53D53BCDFE5DEAFBD30E50EEF5A
:10196B00FEACBEECFBEEF533EBF5348020753300AB
:10197B008F34E5BEC4540FFBE534C4F8540FC8686C
:10198B00FFE533C454F048F533EF4BF534AE33AFCA
:09199B0034220D80B17E107F00A2
:0119A4002220
:03002B000200567A
:0400560053BCDF3286
:1000C6009000021209B16401702990FE80E044405C
:1000D600F090FE82E4F0120998543FFF90FE80E013
:1000E60054C04FF09000031209B1640190FE88706D
:1000F6002C803090FE80E054BFF090FE84E4F090B7
:1001060000041209B125E0FF90FE85E054014FF08E
:100116009000051209B1640190FE857006E054FE58
:10012600F08004E04401F09000011209B190FE80D5
:0C0136007005E0547FF022E04480F022CD
:0825010090FE82E05480FF22ED
:0C24B20090FE82E030E6F9E054BFF0221A
:0924EF0090FE817401F00224B298
:0E24640090FE86EFF090FE817402F00224B22A
:062437001224EF122464E0
:09243D0090FE817403F00224B248
:0F24460090FE817404F01224B290FE87E0FF2212
:0E24720090FE82E4F090FE817405F00224B228
:0F24550090FE827401F090FE817405F00224B2B3
:0924F80090FE817406F00224B28A
:0D248D0090FE86EDF090FE81EFF00224B28B
:1021AD008B2B8A2C892DAE05122437AF0612246491
:1021BD0012243DAB2B052DE52DAA2C7002052C14F8
:1021CD00F9120998FF12246412243DD52EE502243C
:0121DD00F809
:10210200AE07122437AF0512246412243D1224EFC5
:10211200EE4401FF12246412243D122446EF1209F8
:10212200DE740129F9E43AFAE52E6401600312240F
:0A21320072D52EE61224550224F89F
:0300C3000216E042
:1016E000C0E0C083C082C0D075D000C006C00790E3
:1016F000FE84E030E606E054BFF0807A90FE84E09D
:1017000030E535E054DFF0E5516005755100806645
:10171000E550600D75500090FE87E0F552247E8004
:101720003490FE87E0FFAE520552747E2EF582E4BF
:101730003403F583EFF0803E90FE84E030E424E053
:1017400054EFF0E030E10890FE8674FFF08027054A
:1017500052747E2552F582E43403F583E090FE86D0
:10176000F0801390FE84E030E30CE054F7F0755104
:1017700001755001D209D007D006D0D0D082D083D5
:03178000D0E03284
:10099800BB010689828A83E0225002E722BBFE025D
:0909A800E32289828A83E4932290
:1009B100BB010CE58229F582E5833AF583E02250FB
:1009C10006E92582F8E622BBFE06E92582F8E22245
:0D09D100E58229F582E5833AF583E493225F
:1009DE00BB010689828A83F0225002F722BBFE01F8
:0209EE00F322F2
:1009F000BC000BBE0029EF8DF084FFADF022E4CCEB
:100A0000F875F008EF2FFFEE33FEEC33FCEE9DECB3
:100A1000984005FCEE9DFE0FD5F0E9E4CEFD22EDF9
:100A2000F8F5F0EE8420D21CFEADF075F008EF2F43
:100A3000FFED33FD4007985006D5F0F222C398FD34
:050A40000FD5F0EA22D1
:100A4500BB0110E58229F582E5833AF583E0F5F0EF
:100A5500A3E0225009E92582F886F008E622BBFECC
:100A65000AE92582F8E2F5F008E222E5832AF58312
:080A7500E993F5F0A3E99322D7
:100A7D00F8BB0111E58229F582E5833AF583E8F0AB
:100A8D00E5F0A3F0225009E92582C8F608A6F02268
:0D0A9D00BBFE09E92582C8F2E5F008F2224F
:100AAA0075F008758200EF2FFFEE33FECD33CDCC03
:100ABA0033CCC58233C5829BED9AEC99E582984086
:100ACA000CF582EE9BFEED9AFDEC99FC0FD5F0D663
:100ADA00E4CEFBE4CDFAE4CCF9A88222B800C1B98D
:100AEA000059BA002DEC8BF084CFCECDFCE5F0CBCB
:100AFA00F97818EF2FFFEE33FEED33FDEC33FCEB04
:100B0A0033FB10D703994004EB99FB0FD8E5E4F9BE
:100B1A00FA227818EF2FFFEE33FEED33FDEC33FCAB
:100B2A00C933C910D7059BE99A4007EC9BFCE99A9F
:100B3A00F90FD8E0E4C9FAE4CCFB2275F010EF2FE4
:100B4A00FFEE33FEED33FDCC33CCC833C810D707E4
:100B5A009BEC9AE899400AED9BFDEC9AFCE899F81F
:0E0B6A000FD5F0DAE4CDFBE4CCFAE4C8F922B2
:100B7800EB9FF5F0EA9E42F0E99D42F0E89C45F0D3
:010B8800224A
:100B8900E8600FECC313FCED13FDEE13FEEF13FF4A
:030B9900D8F1226E
:100B9C00BB010DE58229F582E5833AF583020BF959
:100BAC005007E92582F8020BECBBFE07E92582F819
:100BBC00020C05E58229F582E5833AF583020C12D5
:100BCC007401FF3395E0FEFDFC080808E62FFFF6E4
:100BDC0018E63EFEF618E63DFDF618E63CFCF6225D
:10063C00E538242CF8E60538227829300702782C86
:10064C00E475F001120C220209982000EB7F2ED2E7
:10065C00008018EF540F2490D43440D4FF30040B96
:10066C00EF24BFB41A0050032461FFE53960021572
:10067C0039053CE53C7002053B30070D7829E475E3
:10068C00F001120C22EF0209DE02001E7403D207E5
:10069C008003E4C207F5388B298A2A892BE4F539C3
:1006AC00F53BF53CE53960077F2012067780F57540
:1006BC003AFFC201C200C202C203C205C206C2088E
:1006CC00120645FF700D3007057F00120688AF3CFF
:1006DC00AE3B22B4255FC2D5C204120645FF24D01E
:1006EC00B40A00501A75F00A783930D50508B6FFEF
:1006FC000106C6A426F620D5047002D20380D924A4
:10070C00CFB41A00EF5004C2E5D204020888D2011B
:10071C0080C6D20080C0D20280BCD2D580BAD205AD
:10072C0080B47F201206772002077401B53900408F
:10073C00F112063CFF1206770206B0D208D20680F0
:10074C009512063CFB12063CFA12063CF94A4B7019
:10075C000679597A097BFF20022EE539602A7E0042
:10076C008E827583001209B160060EEE653A70F048
:10077C00C2D5EBC0E0EAC0E0E9C0E0EE1208CFD091
:10078C00E0F9D0E0FAD0E0FB120998FF60AAEBC0C8
:10079C00E0EAC0E0E9C0E0120677D0E02401F9D02D
:1007AC00E03400FAD0E0FBE53A0460DCD53AD980BD
:1007BC00877BFF7A0879CBD202809C7910800279F2
:1007CC0008C206C2088008D2D5790A8004790AC208
:1007DC00D5E53A047002F53AE4FAFDFEFF12063C48
:1007EC00FC7B0820011312063CFD7B1030000A1222
:1007FC00063CFE12063CFF7B20EC3382D592D55092
:10080C0013C3E43000069FFFE49EFEE42001039D29
:10081C00FDE49CFCE4CBF8C201EC700CCFCECDCC4B
:10082C00E824F8F870F38017C3EF33FFEE33FEEDD6
:10083C0033FDEC33FCEB33FB994002FB0FD8E9EBB7
:10084C00300105F8D0E0C448B201C0E00AEC4D4ECE
:10085C004F78207B0070C2EAB53A0040BCC0E01271
:10086C0008D1D0F0D0E0200104C4C0E0C4B201C073
:10087C00F0120660D0F0D5F0EB0206B0120C320785
:10088C004D5307C758071E4C071A4207CB4F07D3C7
:0F089C004407D34907334307D95507BD4607BD66
:1008AB004507BD4709795007222D07262E07492BEF
:1008BB00072A2307472009622A06E248000007415E
:1008CB003F3F3F00790AA2D5200314300509B91028
:1008DB00020404B9080104A2D52006025001042029
:1008EB0002689202B539005034C0E07F2030031902
:1008FB007F30A20272067205500F120928C202C283
:10090B0006C205C2087F30800F300503E9C0E01234
:10091B000677300503D0E0F9D0E0B539CC300517B8
:10092B007F30B9100C1206777F583004077F788020
:10093B0003B908031206773002057F2D0206777F75
:10094B00202008F87F2B2006F322920280CF286EFE
:10095B00756C6C2900D20112063C3001F8C201788B
:10096B003930D50108F60206E22D504349581206DC
:10097B003C2403B405004001E4900974931206680B
:0D098B00743A120668D2037539040207C7DA
:101FE000AC1CAD1DAE1EAF1F7810EC4D4E4F7004F3
:101FF0007CA57DA5C3EC13FCED13FDEE13FEEF13E2
:10200000FF5010EC64CCFCED644CFDEE644EFEEF32
:1020100064CEFFD8DF8C1C8D1D8E1E8F1FEE547F6B
:0D202000FE228E1C8F1D74A5F51EF51F22DB
:0D0BEC00E6FB08E6F908E6FA08E6CBF82279
:0C0BF900E0F8A3E0F9A3E0FAA3E0FB227F
:0D0C0500E2FB08E2F908E2FA08E2CBF8226F
:100C1200E493F8740193F9740293FA740393FB2238
:100C2200FAE6FB0808E6F925F0F618E6CA3AF622D3
:100C3200D083D082F8E4937012740193700DA3A351
:100C420093F8740193F5828883E473740293686065
:060C5200EFA3A3A380DF65
:00000001FF
