:030000000218D90A
:0C18D900787FE4F6D8FD758174021920B8
:1024BA00544B5F636E74203D202562752E0A00011D
:0724CA00020408102040800D
:10223400E4F50843BA80121AD61225211225321267
:102244002125121662121DE212239B12011E122373
:10225400BDD2AF1211578F08E50860F77BFF7A24CF
:0922640079BAF50C12069E80EA1D
:101AD600750AFFE4F509FB7A0079097F05120EE025
:101AE6007B007A0079097F01120EE07B007A00798B
:101AF600097F02120EE07B007A0079097F03120E3D
:101B0600E07B007A0079097F04120EE07B007A0000
:101B160079097F06120EE07B007A0079097F0712A9
:101B26000EE07B007A007909E4FF120EE043910390
:0F1B36005392FC43C90353CAFC43958053967FD7
:011B4500227D
:102125007509017B007A007909E4FF12226DE4FD4F
:102135007F01121EE67509017B007A0079097F018E
:1021450012226DE4FD7F01122439E4FD7F01122482
:1021550039E4FD7F01120066E4FD7F011223FD9045
:06216500FD03E04430F030
:01216B002251
:10166200E4F509750A01F50B750CA2750D40750FAD
:1016720001FB7A007909FF120C58E4FD7F01120088
:10168200C6E4F509750A01F50B750CA2750D4075D6
:101692000F01FB7A0079097F01120C58E4FD7F01EA
:1016A200121E91750A01E4F50B750CA2750D40F539
:1016B2000E750F01FB7A0079097F02120C58E4FDC6
:1016C2007F01122301E4F50AF50B750CB1750DE0EB
:1016D200F50E750F01FB7A0079097F03120C58E4AD
:1016E200FD7F0112232BE4F50AF50B750CB1750D84
:1016F200E0F50E750F01FB7A0079097F04120C5890
:07170200E4FD7F010222D685
:101DE200750940750A01750E00750DC2750C0175F5
:101DF2000B00751001E4F511FB7A0079097F0112DD
:101E020001467D017F01121FE5750940750E0075BF
:101E12000DC2750C01750B007510017B007A0079FB
:101E2200097F021201467D017F01121E3B53A23F30
:081E3200E5BA54FE4401F5BAC3
:011E3A002285
:10239B0075091FE4F50C750D01750A0F750B01FB23
:1023AB007A007909121BB57F0112258BE4FDFF0220
:0223BB001F9071
:10011E00750B01750A01E4F50C750910FB7A00796F
:10012E0009121965E4FBFD7F01121B46E5BA54CF97
:04013E004410F5BABA
:01014200229A
:10252100750A087509037B007A0079097F05020E97
:01253100E0C9
:102355008E0E8F0FD3E50F9400E50E94004013B257
:10236500CB7F017E001224D1E50F150F70E6150E07
:0323750080E222E1
:10253200750A3CE4F509FB7A0079097F03020EE093
:10184400E4F56AF569F568F56720B2387F0AFE1297
:1018540024D120B22575660120B21F7867120BCC03
:101864007BA07A8679017800C3120B7850EA7566FA
:101874000B7F0A7E0012235580DE7F0A7E0012232E
:1018840055AF662220B3177F0A7E001224D120B3FD
:101894000330B3FD7F0A7E001223557F022220B459
:1018A400177F0A7E001224D120B40330B4FD7F0ACE
:1018B4007E001223557F032220B5177F0A7E001273
:1018C40024D120B50330B5FD7F0A7E001223557F55
:0418D40004227F006B
:0118D80022ED
:1024A2003F065B4F666D7D077F6F777C395E7900F3
:0824B200FEFDFBF7EFDFBF7F29
:10245500E4FEEEC3940874809480500DC2FFEF250E
:09246500E0FF92C1D2FF0E80E9F4
:01246E00224B
:10248900AC07ED9024A293FF122455EC9024B1934C
:09249900FF122455C2FED2FE22FE
:0414D200AB07AA06B4
:1014D6007C277D101209F08F6B7C277D10AF03AE41
:1014E600021209F07E037FE8CFCDCFCECCCE120913
:1014F600F08F6C7C037DE8AF03AE021209F07E002C
:101506007F64CFCDCFCECCCE1209F08F6D7C007D1F
:1015160064AF03AE021209F07E007F0ACFCDCFCEB4
:10152600CCCE1209F08F6EAE02AF037C007D0A129C
:1015360009F08D6FE56B600DFD7F041224897F0134
:101546007E001224D1E56C7004E56B600EAD6C7FF5
:10155600051224897F017E001224D1E56D7008E50D
:101566006C7004E56B600EAD6D7F061224897F01F9
:101576007E001224D1E56E700CE56D7008E56C7086
:1015860004E56B600EAD6E7F071224897F017E0035
:0A1596001224D1AD6F7F08022489F2
:0925E50041542B54494D453D00C1
:0213FE008D530D
:10140000E4F554F555E55324FFFFE434FFFEC3E54E
:10141000559FE5549E40030214D1E4F556F557C399
:10142000E5539555FFE49554CF24FFCF34FFFEC319
:10143000E5579FE5569E40030214C3E5572401FF7C
:10144000E43556FEEF25E0FFEE338F82F583120A76
:1014500045FDACF0E55725E0FFE556338F82F58377
:10146000120A45FFAEF0D39DEE9C40498E588F592D
:10147000E5572401FFE43556FEEF25E0FFEE338FFC
:1014800082F583120A45FDE55725E0FFE556338FC7
:1014900082F583E5F08DF0120A7DE5572401FFE423
:1014A0003556FEEF25E0FFEE338F82F583E5588554
:1014B00059F0120A7D0557E557600302141F0556BF
:1014C00002141F0555E55560030214050554021466
:0114D0000516
:0114D10022F8
:1019E100D3E52694007480948040321526E5267054
:1019F1002CD3E525940074809480401EE4F573E5B2
:101A010073C39525501474002573F582E43400F5F1
:101A110083E0FF1225C7057380E5E4F525D3E52BA7
:101A21009400748094804032152BE52B702CD3E503
:101A31002A940074809480401EE4F573E573C39585
:101A41002A501474802573F582E43400F583E0FF95
:0A1A51001225BD057380E5E4F52AB7
:011A5B002268
:0815A0008B418A4289438D440E
:1015A800E4F545F546F54AF549F548F5477F01FE66
:1015B8001224D1E4F545F546C3E5469544E545943E
:1015C800005029E4FF121A5CAD07E54625E0FFE567
:1015D8004533AB41AA42A9438F82F583EE8DF012C1
:1015E8000A7D0546E54670D0054580CCAB41AA4248
:1015F800A943AD441213FEE4F545F546E546240A31
:10160800FFE43545FEEF25E0FFEE33AB41AA42A9E2
:10161800438F82F583120A45FFAEF0E4FCFDE54AEC
:101628002FF54AE5493EF549ED3548F548EC35478B
:10163800F5470546E54670020545641E454570BCFC
:10164800AF4AAE49AD48AC47E47B1EFAF9F8120A36
:09165800E68F4A8E498D488C474B
:011661002266
:0C25A500726573756C743A2025640A009E
:1012B800C3E54E953BFFE54D953AFEE54C9539FD66
:1012C800E54B9538FCE47B607AEAF9F8C3120B78B1
:1012D80040030213EE854E3B854D3A854C39854BCC
:1012E80038E4F53EC3E53E943274809480501BE4A4
:1012F800FF121A5CE53E25E024FCF582E43402F591
:1013080083EEF0A3EFF0053E80DA7B017A0279FCE8
:101318007D321213FEE4F53EC3E53E941E748094BC
:101328008040030213EEE53E25E02410F582E43404
:1013380003F583E0FEA3E0FFE53E25E024C0F58247
:10134800E43402F583EEF0A3EFF0E53E25E024C097
:10135800F582E43402F583E0FEA3E0F53DEEF53CCA
:10136800E53E25E0FD7B007A00793D755F017FA0B1
:101378001222A57F057E001224D1E53E25E004FD5A
:101388007B007A00793C755F017FA01222A57F055A
:101398007E001224D1E53E25E0FD7B007A00793DF0
:1013A8007565017FA01221FA7F057E001224D1E520
:1013B8003E25E004FD7B007A00793C7565017FA03D
:1013C8001221FAE53CF53FE53DF5407F057E001228
:1013D80024D17BFF7A2579A5853F0C85400D12061F
:1013E8009E053E0213207B017A0279FC7D3212159C
:0613F800A08E368F3722A3
:0D004600E4F5C7F5C5F5C675C380F5C42205
:1023DE0075C78075F51875C5018FC48EC375C65A3D
:0E23EE0075C6A500000000AFC21200467E00BA
:0123FC0022BE
:1000A60075C78075F51875C5028FC48EC38DC27568
:0C00B600C65A75C6A500000000020046F6
:10246F0075C78075F51875C5038FC48EC375C65AA9
:0A247F0075C6A5000000000200462B
:040006004103600052
:10115700E4F509F50DF50CF50BF50A90036FE0FEC4
:10116700A3E0FFE4FCFD7B107A27F9F8C3120B78A4
:10117700503975090190036FE0FEA3E0FFE4FCFD21
:101187007B107A27F9F8C3120B78506F780A120B85
:10119700CC7B807A1A79067800C3120B7850D67503
:1011A700090B7F0A7E0012235580CA900363E0FE75
:1011B700A3E0FFE4FCFD7B107A27F9F8C3120B7854
:1011C700503B750902900363E0FEA3E0FFE4FCFDDA
:1011D7007B107A27F9F8C3120B78501F780A120B85
:1011E700CC7B807A1A79067800C3120B7850D675B3
:1011F70009167F0A7E0012235580CA80509003711A
:10120700E0FEA3E0FFE4FCFD7B107A27F9F8C312A8
:101217000B785043750903900371E0FEA3E0FFE4E8
:10122700FCFD7B107A27F9F8C3120B78501F780A58
:10123700120BCC7B807A1A79067800C3120B785090
:10124700D67509217F0A7E0012235580CA7F0A7E40
:1012570000122355AF0922900373E0FEA3E0FFE4D9
:10126700FCFD7B107A27F9F8C3120B7850407509FB
:1012770004900373E0FEA3E0FFE4FCFD7B107A27F4
:10128700F9F8C3120B78501F780A120BCC7B807ABF
:101297001A79067800C3120B7850D675092C7F0A85
:1012A7007E0012235580CA7F0A7E00122355AF099C
:0112B7002214
:1023BD0090FB407482F0A37403F0A37476F0A374C1
:1023CD0001F090FB4574A0F090FB48E4F043AF8022
:0123DD0022DD
:03011B00021C19AA
:101C1900C0E0C083C082C0D075D000C004C005C078
:011C290007B3
:101C2A0090FB47E0FF30E604E04440F0EF30E72D58
:101C3A0053070F90FB47E04480F090FB49E0FCA378
:101C4A00E0FDEF25E02461F582E43403F583ECF04E
:0D1C5A00A3EDF0EF6409700590036004F045
:0F1C6700D007D005D004D0D0D082D083D0E032C7
:100EE000EFD394077480948040037FFF2212099807
:100EF000FED394037480948040037FFF22EF7044FC
:100F0000EE700B9000011209B1F452935294120941
:100F1000986401700B9000011209B14293F452944D
:100F2000120998FE6402700A9000011209B14293FE
:100F30004294EE6403700D9000011209B1FEF45268
:100F400093EE4294EF64017046120998FE700B9084
:100F500000011209B1F452915292EE6401700B90AB
:100F600000011209B14291F4529212099864027080
:100F70000A9000011209B142914292120998640349
:100F8000700D9000011209B1FEF45291EE4292EF01
:100F900064027046120998FE700B9000011209B1AC
:100FA000F452955296EE6401700B9000011209B153
:100FB0004295F452961209986402700A9000011248
:100FC00009B1429542961209986403700D90000190
:100FD0001209B1FEF45295EE4296EF640370461288
:100FE0000998FE700B9000011209B1F452B152B28F
:100FF000EE6401700B9000011209B142B1F452B2DB
:101000001209986402700A9000011209B142B142BB
:10101000B21209986403700D9000011209B1FEF438
:1010200052B1EE42B2EF64047046120998FE700BA2
:101030009000011209B1F452B352B4EE6401700B86
:101040009000011209B142B3F452B412099864023B
:10105000700A9000011209B142B342B412099864B7
:1010600003700D9000011209B1FEF452B3EE42B4C8
:10107000EF64057046120998FE700B90000112098A
:10108000B1F452C952CAEE6401700B90000112090A
:10109000B142C9F452CA1209986402700A90000160
:1010A0001209B142C942CA1209986403700D900036
:1010B000011209B1FEF452C9EE42CAEF640670464D
:1010C000120998FE700B9000011209B1F452CB5234
:1010D000CCEE6401700B9000011209B142CBF452C6
:1010E000CC1209986402700A9000011209B142CB37
:1010F00042CC1209986403700D9000011209B1FEF0
:10110000F452CBEE42CCEF64077049120998FF7E8F
:1011100000700B9000011209B1F452E152E2EF6449
:10112000014E700B9000011209B142E1F452E2123B
:1011300009986402700A9000011209B142E142E28A
:101140001209986403700D9000011209B1FFF45266
:07115000E1EF42E27F002203
:1024D1007D607C09ED1D70011C144C70F7EF1F70BD
:0624E100011E144E70EA1A
:0124E70022D2
:10226D00EFD394017480948040037FFF22EF7010B0
:10227D00C2891209987004C2888002D2887F002218
:10228D00EF64017010C28B1209987004C28A80022B
:08229D00D28A7F00227FFF229C
:1000C600EFFB7A00D394017480948040037FFF2273
:1000D600EDD394037480948040037FFF22EB4A7033
:1000E60004C2A98002D2A9ED700553B7FDC2B9EDCD
:1000F600FF7E006401700553B7FDD2B9EF64024E6E
:10010600700543B702C2B9EF64034E700543B702E8
:05011600D2B97F0022B8
:101E9100EFFB7A00D394017480948040037FFF228A
:101EA100EDD394037480948040037FFF22EB4A704A
:101EB10004C2AB8002D2ABED700553B7F7C2BBEDE4
:101EC100FF7E006401700553B7F7D2BBEF64024E89
:101ED100700543B708C2BBEF64034E700543B708F2
:051EE100D2BB7F0022CE
:10230100EFD394017480948040037FFF22EDD39436
:10231100037480948040037FFF22EF25E025E0FFD6
:0A232100E5AF54FB4FF5AFE4FF22D7
:10232B00EFD394017480948040037FFF22EDD3940C
:10233B00037480948040037FFF22EFC43354E0FF8B
:0A234B00E5AF54DF4FF5AFE4FF22C9
:1022D600EFD394017480948040037FFF22EDD39462
:1022E600037480948040037FFF22EFC4333354C0CD
:0B22F600FFE5AF54BF4FF5AFE4FF223F
:101EE600EFFB7A00D394017480948040037FFF2235
:101EF600EDD394037480948040037FFF22EB4A70F5
:101F060004C2A88002D2A8ED700553B7FEC2B8ED90
:101F1600FF7E006401700553B7FED2B8EF64024E2F
:101F2600700543B701C2B8EF64034E700543B701AD
:051F3600D2B87F00227B
:101F3B00EFFB7A00D394017480948040037FFF22DF
:101F4B00EDD394037480948040037FFF22EB4A709F
:101F5B0004C2AA8002D2AAED700553B7FBC2BAED38
:101F6B00FF7E006401700553B7FBD2BAEF64024EDB
:101F7B00700543B704C2BAEF64034E700543B70450
:051F8B00D2BA7F002224
:10243900EFD394017480948040037FFF22EFC4544A
:0C244900F0FFE58F54EF4FF58FE4FF2209
:10006600EFD394017480948040037FFF22EFC43362
:0D00760054E0FFE58F54DF4FF58FE4FF22CB
:1023FD00EFD394017480948040037FFF22EFC433A8
:0E240D003354C0FFE58F54BF4FF58FE4FF221C
:101F9000EFFB7A00D394017480948040037FFF228A
:101FA000EDD394037480948040037FFF22EB4A704A
:101FB00004C2AD8002D2ADED700553B7DFC2BDEDF6
:101FC000FF7E006401700553B7DFD2BDEF64024E9F
:101FD000700543B720C2BDEF64034E700543B720C0
:051FE000D2BD7F0022CC
:101D2E00EDFB7A00D394037480948040037FFF22EE
:101D3E00EF30E10543E620800353E6DFEF30E005A8
:101D4E0043E610800353E6EFEB4A700653B6DF53BB
:101D5E00B5DFED6401700653B6DF43B520EDFF7EAF
:101D6E00006402700643B62053B5DFEF64034E7075
:0A1D7E000643B62043B5207F002283
:101B4600EFD394017480948040037FFF22EBD394FB
:101B5600037480948040037FFF22EF64017012EDCE
:101B660090FE817006E0547FF08011E04480F080A2
:101B76000BEF700890FE83E054874DF0EBFF7E007C
:101B8600700653B6DF53B5DFEF64014E700653B6E9
:101B9600DF43B520EF64024E700643B62053B5DF2F
:0F1BA600EF64034E700643B62043B5207F002244
:101FE500EFFB7A00D394017480948040037FFF2235
:101FF500EDD394037480948040037FFF22EB4A70F5
:1020050004C2AC8002D2ACED700553B7EFC2BCED93
:10201500FF7E006401700553B7EFD2BCEF64024E3A
:10202500700543B710C2BCEF64034E700543B7108B
:05203500D2BC7F002277
:101E3B00EFD394017480948040037FFF22EDFB7AF3
:101E4B0000D394037480948040037FFF22E5AF544A
:101E5B00FE4FF5AFEB4A700653B6FE53B5FEED647D
:101E6B0001700653B6FE43B501EDFF7E00640270B0
:101E7B000643B60153B5FEEF64034E700643B6013D
:061E8B0043B5017F0022B7
:101C7600EFD394017480948040037FFF22EDFB7ABA
:101C860000D394037480948040037FFF22EF3333A4
:101C96003354F8FFE5AF54F74FF5AFEB4A700653F0
:101CA600EEFE53DFFEED6401700653EEFE43DF01E8
:101CB600EDFF7E006402700643EE0153DFFEEF6423
:0D1CC600034E700643EE0143DF017F002254
:101CD300EFD394017480948040037FFF22EDFB7A5D
:101CE30000D394037480948040037FFF22EFC45495
:101CF300F0FFE5AF54EF4FF5AFEB4A700653EEFD3F
:101D030053DFFDED6401700653EEFD43DF02EDFF8B
:101D13007E006402700643EE0253DFFDEF64034E60
:0B1D2300700643EE0243DF027F002247
:101D8800EFD394017480948040037FFF22EDFB7AA7
:101D980000D394037480948040037FFF22EF25E0F2
:101DA800FFE5AF54FD4FF5AFEB4A700653B6FD5350
:101DB800B5FDED6401700653B6FD43B502EDFF7E37
:101DC800006402700643B60253B5FDEF64034E701B
:0A1DD8000643B60243B5027F002265
:1017AC00EFD394817480948040037FFF22EBD39419
:1017BC00037480948040037FFF22EF247F603A04FF
:1017CC00706E90FEC4EDF0EBFF7E00700653B6FB1E
:1017DC0053B5FBEF64014E700653B6FB43B504EFF3
:1017EC0064024E700643B60453B5FBEF64034E70AF
:1017FC004443B60443B504803C90FEE4EDF0EBFFAB
:10180C007E00700653B6F753B5F7EF64014E7006C1
:10181C0053B6F743B508EF64024E700643B608534F
:10182C00B5F7EF64034E700D43B60843B508800559
:08183C0090FEE4EDF07F0022B4
:10216C00EDFB7A00D3940374809480502FEB7006AF
:10217C0053EEFB53DFFBEB64014A700653EEFB435B
:10218C00DF04EB64024A700643EE0453DFFBEB649E
:10219C00034A700B43EE0443DF0480037FFF22905D
:0721AC00FE62EFF07F00224C
:03000300022608CA
:06260800B280757401327E
:03001300020041A7
:01004100328C
:0300530002004266
:01004200328B
:03005B0002260E6C
:06260E00B2837574043272
:0300830002005622
:040056007574053286
:030143000223781C
:10237800C0E0C083C08290FD13E030E404E4F0B212
:102388008590FD13E030E504E4F0B286D082D08376
:03239800D0E03260
:100C5800AD07ED6003020CDEC28C120998FED39436
:100C6800037480948040037FFF22E58954FC4EF58D
:100C7800899000011209B1FED394027480948040D7
:100C8800037FFF22EEFF7E007006538E7F5389FBA1
:100C9800EF64014E7006438E805389FBEF64024E69
:100CA80070034389049000021209B1FFE58F54FED6
:100CB8004FF58F900003120A45E5F0F58C9000037C
:100CC800120A45F58A9000061209B17004C28C8098
:100CD80002D28C7F0022ED64016003020D6BC28E8C
:100CE800120998FED394037480948040037FFF22F6
:100CF800EEC454F0FFE58954CF4FF58990000112F6
:100D080009B1FED394027480948040037FFF22EEE1
:100D1800FF7E007006538EBF5389BFEF64014E708B
:100D280006438E405389BFEF64024E7003438940E7
:100D38009000021209B125E0FFE58F54FD4FF58FB1
:100D4800900003120A45E5F0F58D900003120A455C
:100D5800F58B9000061209B17004C28E8002D28E03
:100D68007F0022ED6402706B538EEF900001120930
:100D7800B1FF7E007006538EFB538EF7EF64014E71
:100D88007006438E04538EF7EF64024E7003438E51
:100D9800089000021209B125E025E0FFE58F54FB19
:100DA8004FF58F900003120A45E5F0F5D690000341
:100DB800120A45F5D79000051209B190FEA2F090ED
:100DC80000061209B1C454F0FFE58E54EF4FF58EBA
:100DD8007F0022ED6403707453D1F790000112096B
:100DE800B1FED394027480948040037FFF22EEFF0B
:100DF8007E00700653D1FD53D1FBEF64014E70069F
:100E080043D10253D1FBEF64024E700343D10490E7
:100E180000021209B1FFE5D154FE4FF5D19000034D
:100E2800120A45E5F0F5D4900003120A45F5D5906D
:100E380000051209B190FEA3F09000061209B13323
:100E4800333354F8FFE5D154F7020ED7ED6404604C
:100E580003020EDD53D17F9000011209B1FD7C0021
:100E6800D394027480948040037FFF22ED4C700677
:100E780053D1DF53D1BF9000011209B1640170064C
:100E880043D12053D1BF9000011209B1640270030D
:100E980043D1409000021209B1C454F0FFE5D15487
:100EA800EF4FF5D1900003120A45FDACF0ECF5D2F6
:100EB800AF058FD39000051209B190FEA4F0900001
:100EC800061209B1C43333335480FFE5D1547F4F40
:080ED800F5D17F00227FFF220B
:03000B0002241BB1
:10241B00C0E0C0D0E54E2401F54EE4354DF54DE45A
:0E242B00354CF54CE4354BF54BD0D0D0E032BB
:03001B000200865A
:03008600054F32F1
:0300630002000E8A
:05000E00B2ED055032C7
:03009B000200164A
:05001600B2EC055132BF
:0300A30002001E3A
:05001E00B2EB055232B7
:080146008F128B138A14891536
:10014E00EF640160030202C4F522F523F524F525C0
:10015E00F526F516F51774402517F5827401351638
:10016E00F583E4F00517E517700205166480451651
:10017E0070E4E4F516F51774002517F58274003552
:10018E0016F583E4F00517E5177002051664804531
:10019E001670E4AB13AA14A915120998FFE598542A
:1001AE003F4FF598EF64C06008EF644060030202B1
:1001BE0073900002120B9C7F807E8D7D5B7C001203
:1001CE000AE68F1B8E1A8D198C18E4FFFE7D01FC3A
:1001DE00AB1BAA1AA919A818C3120B7840037FFFEC
:1001EE0022C3E4951BF51BE4951AF51A74019519B3
:1001FE00F519E49518F518AB13AA14A9159000017A
:10020E001209B1FB7A006401702CC28E538EFE531C
:10021E0089BF5389CF438E40AF1BAE1AAD19AC18B0
:10022E007808120B898F8D851B8BC2AB5389BF53F8
:10023E008FFDD28E8069EB64024A7026538EEF4397
:10024E008E01538EF7438E04AF1BAE1AAD19AC1848
:10025E007808120B898FD6851BD753AFFB438E10B0
:10026E00803D7FFF22AB13AA14A915120998FF7EB9
:10027E000070149000081209B164017005438E20BD
:10028E00801D538EDF8018EF64804E701290000830
:10029E001209B164017005438780800353877FABD9
:1002AE0013AA14A9159000071209B17004C29C80FC
:1002BE0002D29C7F0022E512640260030203C1F5A4
:1002CE0027F528F529F52AF52BF516F51774E025EF
:1002DE0017F58274013516F583E4F00517E51770EE
:1002EE000205166480451670E4E4F516F517748061
:1002FE002517F58274003516F583E4F00517E5171A
:10030E00700205166480451670E4AB13AA14A91585
:10031E00120998FF7E0064C06005EF64407077EFAD
:10032E0064C04E7005439A808003539A7F900002FA
:10033E00120B9C7F807E8D7D5B7C00120AE68F1BEC
:10034E008E1A8D198C18E4FFFE7D01FCAB1BAA1AC8
:10035E00A919A818C3120B7840037FFF22C3E49596
:10036E001BF51BE4951AF51A74019519F519E49508
:10037E0018F518538EEF538EF7438E04AF1BAE1A3B
:10038E00AD19AC187808120B898FD6851BD753AFD1
:10039E00FB438E1080037FFF22AB13AA14A9159086
:1003AE0000071209B1C454F0FFE59A54EF4FF59AC5
:1003BE007F0022E512640360030204FDF52CF52D87
:1003CE00F52EF52FF530F516F51774602517F58215
:1003DE0074023516F583E4F00517E517700205165D
:1003EE006440451670E4E4F516F51774002517F50C
:1003FE008274013516F583E4F00517E517700205D2
:10040E00166440451670E4AB13AA14A91512099888
:10041E00FF7E0064C06008EF644060030204E0EFFA
:10042E0064C04E700543AC80800353AC7F900002D5
:10043E00120B9C7F807E8D7D5B7C00120AE68F1BEB
:10044E008E1A8D198C18E4FFFE7D01FCAB1BAA1AC7
:10045E00A919A818C3120B7840037FFF22C3E49595
:10046E001BF51BE4951AF51A74019519F519E49507
:10047E0018F518AB13AA14A9159000011209B1FBB7
:10048E007A006403701D43AC40AF1BAE1AAD19ACBD
:10049E00187808120B898FD4851BD553D1F043D110
:1004AE000A8032EB64024A7026538EEF53ACBF5370
:1004BE008EF7438E04AF1BAE1AAD19AC1878081226
:1004CE000B898FD6851BD753AFFB438E1080067FCB
:1004DE00FF227FFF22AB13AA14A915900007120961
:1004EE00B1C454F0FFE5AC54EF4FF5AC7F0022E5FC
:1004FE001264046003020639F531F532F533F53432
:10050E00F535F516F51774A02517F5827402351614
:10051E00F583E4F00517E5177002051664204516FD
:10052E0070E4E4F516F51774C02517F582740135DD
:10053E0016F583E4F00517E51770020516642045DD
:10054E001670E4AB13AA14A915120998FF7E006465
:10055E00C06008EF6440600302061CEF64C04E707A
:10056E0005438480800353847F900002120B9C7F8E
:10057E00807E8D7D5B7C00120AE68F1B8E1A8D1994
:10058E008C18E4FFFE7D01FCAB1BAA1AA919A81852
:10059E00C3120B7840037FFF22C3E4951BF51BE4C7
:1005AE00951AF51A74019519F519E49518F518AB05
:1005BE0013AA14A9159000011209B1FB7A00640464
:1005CE00701D438440AF1BAE1AAD19AC18780812DB
:1005DE000B898FD2851BD353D10F43D1A08032EB21
:1005EE0064024A7026538EEF5384BF538EF7438EA8
:1005FE0004AF1BAE1AAD19AC187808120B898FD642
:10060E00851BD753AFFB438E1080067FFF227FFFE3
:10061E0022AB13AA14A9159000071209B1C454F005
:0D062E00FFE58454EF4FF5847F00227FFF2D
:01063B00229C
:0A25BD008F99752401E52470FC22BB
:10002E00120998FF600C1225BD740129F9E43AFA01
:03003E0080EE222F
:0A25C7008F9B752901E52970FC22A5
:1024E800120998FF600C1225C7740129F9E43AFA19
:0324F80080EE2251
:0A25D1008FAD752E01E52E70FC227F
:1024FB00120998FF600C1225D1740129F9E43AFAFC
:03250B0080EE223D
:0A25DB008F85753301E53370FC2293
:10250E00120998FF600C1225DB740129F9E43AFADE
:03251E0080EE222A
:05002600AE070225C732
:030023000221B304
:1021B300C0E0C083C082C0D075D000C0073098246F
:1021C300C298C3E5259480748094804003752500EC
:1021D300AF25052574002FF582E43400F583E599D6
:1021E300F0752605309905C299752400D007D0D023
:0721F300D082D083D0E0325E
:030043000220D8C0
:1020D800C0E0C083C082C0D075D000C007E59A3088
:1020E800E025539AFEC3E52A9480748094804003C7
:1020F800752A00AF2A052A74802FF582E43400F58A
:1021080083E59BF0752B05E59A30E106539AFD753A
:0D2118002900D007D0D0D082D083D0E03293
:03008B0002203A16
:10203A00C0E0C083C082C0D075D000C007E5AC54F0
:10204A0001602553ACFEC3E52F9440748094804010
:10205A0003752F00AF2F052F74002FF582E434018A
:10206A00F583E5ADF0753005E5AC5402600653AC76
:0F207A00FD752E00D007D0D0D082D083D0E032B9
:03009300022089BF
:10208900C0E0C083C082C0D075D000C007E58454C9
:102099000160255384FEC3E5349420748094804004
:1020A90003753400AF34053474C02FF582E434016C
:1020B900F583E585F0753505E5845402600653849A
:0F20C900FD753300D007D0D0D082D083D0E03265
:101BB5009000011209B1FFE5DE54F04FF5DE90000B
:101BC500021209B1C43354E0FFE5DE54DF4FF5DE00
:101BD500120998D3941F7480948050379000031293
:101BE50009B1FFD3940174809480502790000412AA
:101BF50009B1FED39403748094805017EEC4335416
:101C0500E0FEEFC433333354804EFF1209984F90F2
:041C1500FEA8F02213
:0D258B00EF6401700443BC802253BC7F222A
:101A5C00EFD3940F7480948040028069E4F5BDF557
:101A6C00BEE5BC54F044404FF5BC00000000000043
:101A7C0000000000E4FDEDC394FA7480948050459E
:101A8C00E5BC30E53D53BCDFE5DEAFBD30E50EEF28
:101A9C00FEACBEECFBEEF570EBF5718020757000C2
:101AAC008F71E5BEC4540FFBE571C4F8540FC868C0
:101ABC00FFE570C454F048F570EF4BF571AE70AFA4
:091ACC0071220D80B17E107F0033
:011AD50022EE
:03002B0002005E72
:04005E0053BCDF327E
:101965009000021209B16401702990FE80E04440A4
:10197500F090FE82E4F0120998543FFF90FE80E05B
:1019850054C04FF09000031209B1640190FE8870B5
:101995002C803090FE80E054BFF090FE84E4F090FF
:1019A50000041209B125E0FF90FE85E054014FF0D7
:1019B5009000051209B1640190FE857006E054FEA1
:1019C500F08004E04401F09000011209B190FE801E
:0C19D5007005E0547FF022E04480F02216
:0826000090FE82E05480FF22ED
:0C25B10090FE82E030E6F9E054BFF0221A
:0925EE0090FE817401F00225B198
:0E256F0090FE86EFF090FE817402F00225B11E
:062542001225EE12256FC8
:0925480090FE817403F00225B13C
:0F25510090FE817404F01225B190FE87E0FF2206
:0E257D0090FE82E4F090FE817405F00225B11C
:0F25600090FE827401F090FE817405F00225B1A7
:0925F70090FE817406F00225B18A
:0D25980090FE86EDF090FE81EFF00225B17F
:1022A5008B5C8A5D895EAE05122542AF0612256FED
:1022B500122548AB5C055EE55EAA5D7002055D14FE
:1022C500F9120998FF12256F122548D55FE50225F9
:0122D500F711
:1021FA00AE07122542AF0512256F1225481225EEA9
:10220A00EE4401FF12256F122548122551EF1209DB
:10221A00DE740129F9E43AFAE565640160031225DE
:0A222A007DD565E61225600225F758
:0300C30002170918
:10170900C0E0C083C082C0D075D000C006C00790B9
:10171900FE84E030E606E054BFF0807A90FE84E073
:1017290030E535E054DFF0E51E6005751E00806682
:10173900E51D600D751D0090FE87E0F51F2475807D
:101749003490FE87E0FFAE1F051F74752EF582E405
:101759003403F583EFF0803E90FE84E030E424E02A
:1017690054EFF0E030E10890FE8674FFF080270521
:101779001F7475251FF582E43403F583E090FE8616
:10178900F0801390FE84E030E30CE054F7F0751E0E
:1017990001751D01D209D007D006D0D0D082D083DF
:0317A900D0E0325B
:1018E500022234E493A3F8E493A34003F68001F2C3
:1018F50008DFF48029E493A3F85407240CC8C33304
:10190500C4540F4420C8834004F456800146F6DFD2
:10191500E4800B0102040810204080900006E47E5C
:10192500019360BCA3FF543F30E509541FFEE493C7
:10193500A360010ECF54C025E060A840B8E493A38E
:10194500FAE493A3F8E493A3C8C582C8CAC583CAB9
:10195500F0A3C8C582C8CAC583CADFE9DEE780BE71
:01000A0000F5
:10099800BB010689828A83E0225002E722BBFE025D
:0909A800E32289828A83E4932290
:1009B100BB010CE58229F582E5833AF583E02250FB
:1009C10006E92582F8E622BBFE06E92582F8E22245
:0D09D100E58229F582E5833AF583E493225F
:1009DE00BB010689828A83F0225002F722BBFE01F8
:0209EE00F322F2
:1009F000BC000BBE0029EF8DF084FFADF022E4CCEB
:100A0000F875F008EF2FFFEE33FEEC33FCEE9DECB3
:100A1000984005FCEE9DFE0FD5F0E9E4CEFD22EDF9
:100A2000F8F5F0EE8420D21CFEADF075F008EF2F43
:100A3000FFED33FD4007985006D5F0F222C398FD34
:050A40000FD5F0EA22D1
:100A4500BB0110E58229F582E5833AF583E0F5F0EF
:100A5500A3E0225009E92582F886F008E622BBFECC
:100A65000AE92582F8E2F5F008E222E5832AF58312
:080A7500E993F5F0A3E99322D7
:100A7D00F8BB0111E58229F582E5833AF583E8F0AB
:100A8D00E5F0A3F0225009E92582C8F608A6F02268
:0D0A9D00BBFE09E92582C8F2E5F008F2224F
:100AAA0075F008758200EF2FFFEE33FECD33CDCC03
:100ABA0033CCC58233C5829BED9AEC99E582984086
:100ACA000CF582EE9BFEED9AFDEC99FC0FD5F0D663
:100ADA00E4CEFBE4CDFAE4CCF9A88222B800C1B98D
:100AEA000059BA002DEC8BF084CFCECDFCE5F0CBCB
:100AFA00F97818EF2FFFEE33FEED33FDEC33FCEB04
:100B0A0033FB10D703994004EB99FB0FD8E5E4F9BE
:100B1A00FA227818EF2FFFEE33FEED33FDEC33FCAB
:100B2A00C933C910D7059BE99A4007EC9BFCE99A9F
:100B3A00F90FD8E0E4C9FAE4CCFB2275F010EF2FE4
:100B4A00FFEE33FEED33FDCC33CCC833C810D707E4
:100B5A009BEC9AE899400AED9BFDEC9AFCE899F81F
:0E0B6A000FD5F0DAE4CDFBE4CCFAE4C8F922B2
:100B7800EB9FF5F0EA9E42F0E99D42F0E89C45F0D3
:010B8800224A
:100B8900E8600FECC313FCED13FDEE13FEEF13FF4A
:030B9900D8F1226E
:100B9C00BB010DE58229F582E5833AF583020BF959
:100BAC005007E92582F8020BECBBFE07E92582F819
:100BBC00020C05E58229F582E5833AF583020C12D5
:100BCC007401FF3395E0FEFDFC080808E62FFFF6E4
:100BDC0018E63EFEF618E63DFDF618E63CFCF6225D
:10063C00E518240CF8E60518227809300702780C26
:10064C00E475F001120C220209982000EB7F2ED2E7
:10065C00008018EF540F2490D43440D4FF30040B96
:10066C00EF24BFB41A0050032461FFE51960021592
:10067C0019051CE51C7002051B30070D7809E47583
:10068C00F001120C22EF0209DE0200267403D207DD
:10069C008003E4C207F5188B098A0A890BE4F51963
:1006AC00F51BF51CE51960077F2012067780F575A0
:1006BC001AFFC201C200C202C203C205C206C208AE
:1006CC00120645FF700D3007057F00120688AF1C1F
:1006DC00AE1B22B4255FC2D5C204120645FF24D03E
:1006EC00B40A00501A75F00A781930D50508B6FF0F
:1006FC000106C6A426F620D5047002D20380D924A4
:10070C00CFB41A00EF5004C2E5D204020888D2011B
:10071C0080C6D20080C0D20280BCD2D580BAD205AD
:10072C0080B47F201206772002077401B5190040AF
:10073C00F112063CFF1206770206B0D208D20680F0
:10074C009512063CFB12063CFA12063CF94A4B7019
:10075C000679597A097BFF20022EE519602A7E0062
:10076C008E827583001209B160060EEE651A70F068
:10077C00C2D5EBC0E0EAC0E0E9C0E0EE1208CFD091
:10078C00E0F9D0E0FAD0E0FB120998FF60AAEBC0C8
:10079C00E0EAC0E0E9C0E0120677D0E02401F9D02D
:1007AC00E03400FAD0E0FBE51A0460DCD51AD980FD
:1007BC00877BFF7A0879CBD202809C7910800279F2
:1007CC0008C206C2088008D2D5790A8004790AC208
:1007DC00D5E51A047002F51AE4FAFDFEFF12063C88
:1007EC00FC7B0820011312063CFD7B1030000A1222
:1007FC00063CFE12063CFF7B20EC3382D592D55092
:10080C0013C3E43000069FFFE49EFEE42001039D29
:10081C00FDE49CFCE4CBF8C201EC700CCFCECDCC4B
:10082C00E824F8F870F38017C3EF33FFEE33FEEDD6
:10083C0033FDEC33FCEB33FB994002FB0FD8E9EBB7
:10084C00300105F8D0E0C448B201C0E00AEC4D4ECE
:10085C004F78207B0070C2EAB51A0040BCC0E01291
:10086C0008D1D0F0D0E0200104C4C0E0C4B201C073
:10087C00F0120660D0F0D5F0EB0206B0120C320785
:10088C004D5307C758071E4C071A4207CB4F07D3C7
:0F089C004407D34907334307D95507BD4607BD66
:1008AB004507BD4709795007222D07262E07492BEF
:1008BB00072A2307472009622A06E248000007415E
:1008CB003F3F3F00790AA2D5200314300509B91028
:1008DB00020404B9080104A2D52006025001042029
:1008EB0002689202B519005034C0E07F2030031922
:1008FB007F30A20272067205500F120928C202C283
:10090B0006C205C2087F30800F300503E9C0E01234
:10091B000677300503D0E0F9D0E0B519CC300517D8
:10092B007F30B9100C1206777F583004077F788020
:10093B0003B908031206773002057F2D0206777F75
:10094B00202008F87F2B2006F322920280CF286EFE
:10095B00756C6C2900D20112063C3001F8C201788B
:10096B001930D50108F60206E22D504349581206FC
:10097B003C2403B405004001E4900974931206680B
:0D098B00743A120668D2037519040207C7FA
:0D0BEC00E6FB08E6F908E6FA08E6CBF82279
:0C0BF900E0F8A3E0F9A3E0FAA3E0FB227F
:0D0C0500E2FB08E2F908E2FA08E2CBF8226F
:100C1200E493F8740193F9740293FA740393FB2238
:100C2200FAE6FB0808E6F925F0F618E6CA3AF622D3
:100C3200D083D082F8E4937012740193700DA3A351
:100C420093F8740193F5828883E473740293686065
:060C5200EFA3A3A380DF65
:00000001FF
