:03000000021C5986
:0C1C5900787FE4F6D8FD758178021CA0AD
:10245800546F7563685F54454D50203D2025626474
:102468000D0A00646973706C61795F6D6F64652033
:102478003D202562640D0A0032302562642F2562F2
:10248800642F2562642C2F2562643A2562643A25FC
:0D24980062640D0A0001020408102040805B
:0329E3000175007B
:1017D700E4F508F509F50AF50B43BA80121E56120F
:1017E70029041229151224F21218941221621227C1
:1017F700B11227461227D3122639D2AF1212CC8F35
:10180700087E00EF601F64017003757501EF6402C5
:101817004E70037575021212CCEF60097F0A7E00C5
:101827001228B480F1E5756401701090FE73E0FF33
:10183700A3E0FDA3E0FB12193B8014E57564027079
:101847000E90FE70E0FFA3E0FDA3E0FB1219E27B20
:10185700FF7A24795885080F12069E7BFF7A247930
:101867006B85750F12069E7BFF7A24798090FE7038
:10187700E0F50FA3E0F510A3E0F511A3E0F512A33F
:0D188700E0F513A3E0F51412069E0218030D
:101E5600750DFFE4F50CFB7A00790C7F05120EE098
:101E66007B007A00790C7F01120EE07B007A007904
:101E76000C7F02120EE07B007A00790C7F03120EB3
:101E8600E07B007A00790C7F04120EE07B007A007A
:101E9600790C7F06120EE07B007A00790C7F071220
:101EA6000EE07B007A00790CE4FF120EE04391030A
:0F1EB6005392FC43C90353CAFC43958053967F54
:011EC50022FA
:1024F200750C017B007A00790CE4FF122601E4FDE1
:102502007F01122266750C017B007A00790C7F0133
:10251200122601E4FD7F01120126E4FD7F01120172
:1025220026E4FD7F01120066E4FD7F01122813906C
:06253200FD03E04430F05F
:012538002280
:10189400E4F50C750D01F50E750FA2751040751267
:1018A40001FB7A00790CFF120C58E4FD7F01120051
:1018B400C6E4F50C750D01F50E750FA27510407593
:1018C4001201FB7A00790C7F01120C58E4FD7F01B0
:1018D400122211750D01E4F50E750FA2751040F575
:1018E40011751201FB7A00790C7F02120C58E4FD89
:1018F4007F011226F2E4F50DF50E750FB17510E0B7
:10190400F511751201FB7A00790C7F03120C58E46F
:10191400FD7F0112271CE4F50DF50E750FB175104E
:10192400E0F511751201FB7A00790C7F04120C5852
:07193400E4FD7F0102269C87
:10216200750C40750D017511007510C2750F017562
:102172000E00751301E4F514FB7A00790C7F01124D
:1021820001467D017F01122365750C4075110075B2
:1021920010C2750F01750E007513017B007A00796C
:1021A2000C7F021201467D017F011221BB53A23F27
:0821B200E5BA54FE4401F5BA40
:0121BA002202
:1027B100750C1FE4F50F751001750D0F750E01FBFA
:1027C1007A00790C121F357F0112296EE4FDFF0298
:0227D1002310D3
:10274600750E01750D01E4F50F750C10FB7A007915
:102756000C121CE5E4FBFD7F01121EC6E5BA54CF40
:042766004410F5BA6C
:01276A00224C
:10263900750D01750C01750E19750F0975100F755A
:10264900110B75122A751337E4F514F515F516F5FE
:1026590017F518FB7A00790C121157E4FD7F8802EF
:02266900253911
:10290400750D08750C037B007A00790C7F05020EA7
:01291400E0E2
:10276B008E118F12D3E5129400E51194004013B231
:10277B00CB7F017E001228B4E512151270E61511FD
:03278B0080E222C7
:10291500750D3CE4F50CFB7A00790C7F03020EE0A3
:101BC400E4F56AF569F568F56720B2387F0AFE1214
:101BD40028B420B22575660120B21F7867120BCC99
:101BE4007BA07A8679017800C3120B7850EA756677
:101BF4000B7F0A7E0012276B80DE7F0A7E0012278D
:101C04006BAF662220B3177F0A7E001228B420B37C
:101C14000330B3FD7F0A7E0012276B7F022220B4BB
:101C2400177F0A7E001228B420B40330B4FD7F0A63
:101C34007E0012276B7F032220B5177F0A7E0012D5
:101C440028B420B50330B5FD7F0A7E0012276B7FD0
:041C540004227F00E7
:011C58002269
:10289C003F065B4F666D7D077F6F777C395E7900F5
:0828AC00FEFDFBF7EFDFBF7F2B
:10284F00E4FEEEC3940874809480500DC2FFEF2510
:09285F00E0FF92C1D2FF0E80E9F6
:01286800224D
:10288300AC07ED90289C93FF12284FEC9028AB9354
:09289300FF12284FC2FED2FE2202
:02193B00AE05F7
:10193D00EF75F00A84FDEF75F00A8485F00CEE75F5
:10194D00F00A84F50DEE75F00A8485F00EEB75F056
:10195D000A84F50FEB75F00A8485F010ED600C7FAD
:10196D00031228837F017E001228B4C374809480F3
:10197D00400EAD0C7F041228837F017E001228B427
:10198D00C374809480400EAD0D7F051228837F01B6
:10199D007E001228B4C374809480400EAD0E7F0675
:1019AD001228837F017E001228B4C3748094804076
:1019BD000EAD0F7F071228837F017E001228B4C35E
:1019CD0074809480400EAD107F081228837F017EB5
:0419DD00001228B418
:0119E10022E3
:0219E200AE0550
:1019E400EF75F00A84FDEF75F00A8485F00CEE754E
:1019F400F00A84F50DEE75F00A8485F00EEB75F0AF
:101A04000A84F50FEB75F00A8485F010ED600C7F05
:101A1400031228837F017E001228B4C3748094804B
:101A2400400EAD0C7F041228837F017E001228B47F
:101A3400C374809480400EAD0D7F051228837F010E
:101A44007E001228B4C374809480400EAD0E7F06CD
:101A54001228837F017E001228B4C37480948040CE
:101A64000EAD0F7F071228837F017E001228B4C3B6
:101A740074809480400EAD107F081228837F017E0D
:041A8400001228B470
:011A8800223B
:04164700AB07AA063D
:10164B007C277D101209F08F6B7C277D10AF03AECA
:10165B00021209F07E037FE8CFCDCFCECCCE12099C
:10166B00F08F6C7C037DE8AF03AE021209F07E00B5
:10167B007F64CFCDCFCECCCE1209F08F6D7C007DA9
:10168B0064AF03AE021209F07E007F0ACFCDCFCE3E
:10169B00CCCE1209F08F6EAE02AF037C007D0A1226
:1016AB0009F08D6FE56B600DFD7F041228837F01C0
:1016BB007E001228B4E56C7004E56B600EAD6C7F98
:1016CB00051228837F017E001228B4E56D7008E5B2
:1016DB006C7004E56B600EAD6D7F061228837F0185
:1016EB007E001228B4E56E700CE56D7008E56C7029
:1016FB0004E56B600EAD6E7F071228837F017E00C1
:0A170B001228B4AD6F7F0802288396
:0929C80041542B54494D453D00DA
:021573008D5396
:10157500E4F554F555E55324FFFFE434FFFEC3E5D8
:10158500559FE5549E4003021646E4F556F557C3AC
:10159500E5539555FFE49554CF24FFCF34FFFEC3A3
:1015A500E5579FE5569E4003021638E5572401FF8F
:1015B500E43556FEEF25E0FFEE338F82F583120A00
:1015C50045FDACF0E55725E0FFE556338F82F58301
:1015D500120A45FFAEF0D39DEE9C40498E588F59B7
:1015E500E5572401FFE43556FEEF25E0FFEE338F86
:1015F50082F583120A45FDE55725E0FFE556338F51
:1016050082F583E5F08DF0120A7DE5572401FFE4AC
:101615003556FEEF25E0FFEE338F82F583E55885DD
:1016250059F0120A7D0557E55760030215940556D2
:101635000215940555E555600302157A0554021502
:011645007A2A
:011646002281
:101D6100D3E52694007480948040321526E52670D0
:101D71002CD3E525940074809480401EE4F577E52A
:101D810077C39525501474002577F582E43400F566
:101D910083E0FF1229AA057780E5E4F525D3E52B39
:101DA1009400748094804032152BE52B702CD3E580
:101DB1002A940074809480401EE4F577E577C395FA
:101DC1002A501474802577F582E43400F583E0FF0E
:0A1DD1001229A0057780E5E4F52A49
:011DDB0022E5
:081715008B418A4289438D4497
:10171D00E4F545F546F54AF549F548F5477F01FEEF
:10172D001228B4E4F545F546C3E5469544E54594E0
:10173D00005029E4FF121DDCAD07E54625E0FFE56D
:10174D004533AB41AA42A9438F82F583EE8DF0124A
:10175D000A7D0546E54670D0054580CCAB41AA42D1
:10176D00A943AD44121573E4F545F546E546240A43
:10177D00FFE43545FEEF25E0FFEE33AB41AA42A96C
:10178D00438F82F583120A45FFAEF0E4FCFDE54A76
:10179D002FF54AE5493EF549ED3548F548EC354715
:1017AD00F5470546E54670020545641E454570BC86
:1017BD00AF4AAE49AD48AC47E47B1EFAF9F8120AC0
:0917CD00E68F4A8E498D488C47D5
:0117D60022F0
:0C298800726573756C743A2025640A00B7
:10142D00C3E54E953BFFE54D953AFEE54C9539FDEF
:10143D00E54B9538FCE47B607AEAF9F8C3120B783A
:10144D004003021563854E3B854D3A854C39854BDE
:10145D0038E4F53EC3E53E943274809480501BE42D
:10146D00FF121DDCE53E25E024FCF582E43402F597
:10147D0083EEF0A3EFF0053E80DA7B017A0279FC72
:10148D007D32121573E4F53EC3E53E941E748094CF
:10149D00804003021563E53E25E02410F582E43417
:1014AD0003F583E0FEA3E0FFE53E25E024C0F582D1
:1014BD00E43402F583EEF0A3EFF0E53E25E024C021
:1014CD00F582E43402F583E0FEA3E0F53DEEF53C54
:1014DD00E53E25E0FD7B007A00793D755F017FA03B
:1014ED0012266B7F057E001228B4E53E25E004FD33
:1014FD007B007A00793C755F017FA012266B7F051A
:10150D007E001228B4E53E25E0FD7B007A00793D92
:10151D007565017FA01225C77F057E001228B4E5F1
:10152D003E25E004FD7B007A00793C7565017FA0C6
:10153D001225C7E53CF53FE53DF5407F057E0012E0
:10154D0028B47BFF7A297988853F0F8540101206D4
:10155D009E053E0214957B017A0279FC7D321217AD
:06156D00158E368F3722B7
:0D004600E4F5C7F5C5F5C675C380F5C42205
:1027F40075C78075F51875C5018FC48EC375C65A23
:0E28040075C6A500000000AFC21200467E009F
:0128120022A3
:1000A60075C78075F51875C5028FC48EC38DC27568
:0C00B600C65A75C6A500000000020046F6
:1028690075C78075F51875C5038FC48EC375C65AAB
:0A28790075C6A5000000000200462D
:0429E6004103600049
:1012CC00E4F50CF510F50FF50EF50D90036FE0FE3F
:1012DC00A3E0FFE4FCFD7B107A27F9F8C3120B782E
:1012EC005039750C0190036FE0FEA3E0FFE4FCFDA8
:1012FC007B107A27F9F8C3120B78506F780D120B0C
:10130C00CC7B807A1A79067800C3120B7850D6758C
:10131C000C0B7F0A7E0012276B80CA900363E0FEE1
:10132C00A3E0FFE4FCFD7B107A27F9F8C3120B78DD
:10133C00503B750C02900363E0FEA3E0FFE4FCFD60
:10134C007B107A27F9F8C3120B78501F780D120B0B
:10135C00CC7B807A1A79067800C3120B7850D6753C
:10136C000C167F0A7E0012276B80CA805090037186
:10137C00E0FEA3E0FFE4FCFD7B107A27F9F8C31232
:10138C000B785043750C03900371E0FEA3E0FFE46F
:10139C00FCFD7B107A27F9F8C3120B78501F780DDF
:1013AC00120BCC7B807A1A79067800C3120B78501A
:1013BC00D6750C217F0A7E0012276B80CA7F0A7EAD
:1013CC000012276BAF0C22900373E0FEA3E0FFE446
:1013DC00FCFD7B107A27F9F8C3120B785040750C82
:1013EC0004900373E0FEA3E0FFE4FCFD7B107A277E
:1013FC00F9F8C3120B78501F780D120BCC7B807A46
:10140C001A79067800C3120B7850D6750C2C7F0A0B
:10141C007E0012276B80CA7F0A7E0012276BAF0CEE
:01142C00229D
:1027D30090FB407482F0A37403F0A37476F0A374A7
:1027E30001F090FB4574A0F090FB48E4F043AF8008
:0127F30022C3
:03011B00021F9927
:101F9900C0E0C083C082C0D075D000C004C005C0F5
:011FA9000730
:101FAA0090FB47E0FF30E604E04440F0EF30E72DD5
:101FBA0053070F90FB47E04480F090FB49E0FCA3F5
:101FCA00E0FDEF25E02461F582E43403F583ECF0CB
:0D1FDA00A3EDF0EF6409700590036004F0C2
:0F1FE700D007D005D004D0D0D082D083D0E03244
:100EE000EFD394077480948040037FFF2212099807
:100EF000FED394037480948040037FFF22EF7044FC
:100F0000EE700B9000011209B1F452935294120941
:100F1000986401700B9000011209B14293F452944D
:100F2000120998FE6402700A9000011209B14293FE
:100F30004294EE6403700D9000011209B1FEF45268
:100F400093EE4294EF64017046120998FE700B9084
:100F500000011209B1F452915292EE6401700B90AB
:100F600000011209B14291F4529212099864027080
:100F70000A9000011209B142914292120998640349
:100F8000700D9000011209B1FEF45291EE4292EF01
:100F900064027046120998FE700B9000011209B1AC
:100FA000F452955296EE6401700B9000011209B153
:100FB0004295F452961209986402700A9000011248
:100FC00009B1429542961209986403700D90000190
:100FD0001209B1FEF45295EE4296EF640370461288
:100FE0000998FE700B9000011209B1F452B152B28F
:100FF000EE6401700B9000011209B142B1F452B2DB
:101000001209986402700A9000011209B142B142BB
:10101000B21209986403700D9000011209B1FEF438
:1010200052B1EE42B2EF64047046120998FE700BA2
:101030009000011209B1F452B352B4EE6401700B86
:101040009000011209B142B3F452B412099864023B
:10105000700A9000011209B142B342B412099864B7
:1010600003700D9000011209B1FEF452B3EE42B4C8
:10107000EF64057046120998FE700B90000112098A
:10108000B1F452C952CAEE6401700B90000112090A
:10109000B142C9F452CA1209986402700A90000160
:1010A0001209B142C942CA1209986403700D900036
:1010B000011209B1FEF452C9EE42CAEF640670464D
:1010C000120998FE700B9000011209B1F452CB5234
:1010D000CCEE6401700B9000011209B142CBF452C6
:1010E000CC1209986402700A9000011209B142CB37
:1010F00042CC1209986403700D9000011209B1FEF0
:10110000F452CBEE42CCEF64077049120998FF7E8F
:1011100000700B9000011209B1F452E152E2EF6449
:10112000014E700B9000011209B142E1F452E2123B
:1011300009986402700A9000011209B142E142E28A
:101140001209986403700D9000011209B1FFF45266
:07115000E1EF42E27F002203
:1028B4007D607C09ED1D70011C144C70F7EF1F70D6
:0628C400011E144E70EA33
:0128CA0022EB
:10260100EFD394017480948040037FFF22EF701018
:10261100C2891209987004C2888002D2887F002280
:10262100EF64017010C28B1209987004C28A800293
:08263100D28A7F00227FFF2204
:1000C600EFFB7A00D394017480948040037FFF2273
:1000D600EDD394037480948040037FFF22EB4A7033
:1000E60004C2A98002D2A9ED700553B7FDC2B9EDCD
:1000F600FF7E006401700553B7FDD2B9EF64024E6E
:10010600700543B702C2B9EF64034E700543B702E8
:05011600D2B97F0022B8
:10221100EFFB7A00D394017480948040037FFF2206
:10222100EDD394037480948040037FFF22EB4A70C6
:1022310004C2AB8002D2ABED700553B7F7C2BBED60
:10224100FF7E006401700553B7F7D2BBEF64024E05
:10225100700543B708C2BBEF64034E700543B7086E
:05226100D2BB7F00224A
:1026F200EFD394017480948040037FFF22EDD39442
:10270200037480948040037FFF22EF25E025E0FFE1
:0A271200E5AF54FB4FF5AFE4FF22E2
:10271C00EFD394017480948040037FFF22EDD39417
:10272C00037480948040037FFF22EFC43354E0FF96
:0A273C00E5AF54DF4FF5AFE4FF22D4
:10269C00EFD394017480948040037FFF22EDD39498
:1026AC00037480948040037FFF22EFC4333354C003
:0B26BC00FFE5AF54BF4FF5AFE4FF2275
:10226600EFFB7A00D394017480948040037FFF22B1
:10227600EDD394037480948040037FFF22EB4A7071
:1022860004C2A88002D2A8ED700553B7FEC2B8ED0D
:10229600FF7E006401700553B7FED2B8EF64024EAC
:1022A600700543B701C2B8EF64034E700543B7012A
:0522B600D2B87F0022F8
:1022BB00EFFB7A00D394017480948040037FFF225C
:1022CB00EDD394037480948040037FFF22EB4A701C
:1022DB0004C2AA8002D2AAED700553B7FBC2BAEDB5
:1022EB00FF7E006401700553B7FBD2BAEF64024E58
:1022FB00700543B704C2BAEF64034E700543B704CD
:05230B00D2BA7F0022A0
:10012600EFD394017480948040037FFF22EFC45480
:0C013600F0FFE58F54EF4FF58FE4FF223F
:10006600EFD394017480948040037FFF22EFC43362
:0D00760054E0FFE58F54DF4FF58FE4FF22CB
:10281300EFD394017480948040037FFF22EFC4338D
:0E2823003354C0FFE58F54BF4FF58FE4FF2202
:10231000EFFB7A00D394017480948040037FFF2206
:10232000EDD394037480948040037FFF22EB4A70C6
:1023300004C2AD8002D2ADED700553B7DFC2BDED72
:10234000FF7E006401700553B7DFD2BDEF64024E1B
:10235000700543B720C2BDEF64034E700543B7203C
:05236000D2BD7F002248
:1020AE00EDFB7A00D394037480948040037FFF226B
:1020BE00EF30E10543E620800353E6DFEF30E00525
:1020CE0043E610800353E6EFEB4A700653B6DF5338
:1020DE00B5DFED6401700653B6DF43B520EDFF7E2C
:1020EE00006402700643B62053B5DFEF64034E70F2
:0A20FE000643B62043B5207F002200
:101EC600EFD394017480948040037FFF22EBD39478
:101ED600037480948040037FFF22EF64017012ED4B
:101EE60090FE817006E0547FF08011E04480F0801F
:101EF6000BEF700890FE83E054874DF0EBFF7E00F9
:101F0600700653B6DF53B5DFEF64014E700653B665
:101F1600DF43B520EF64024E700643B62053B5DFAB
:0F1F2600EF64034E700643B62043B5207F0022C0
:10236500EFFB7A00D394017480948040037FFF22B1
:10237500EDD394037480948040037FFF22EB4A7071
:1023850004C2AC8002D2ACED700553B7EFC2BCED10
:10239500FF7E006401700553B7EFD2BCEF64024EB7
:1023A500700543B710C2BCEF64034E700543B71008
:0523B500D2BC7F0022F4
:1021BB00EFD394017480948040037FFF22EDFB7A70
:1021CB0000D394037480948040037FFF22E5AF54C7
:1021DB00FE4FF5AFEB4A700653B6FE53B5FEED64FA
:1021EB0001700653B6FE43B501EDFF7E006402702D
:1021FB000643B60153B5FEEF64034E700643B601BA
:06220B0043B5017F002233
:101FF600EFD394017480948040037FFF22EDFB7A37
:1020060000D394037480948040037FFF22EF333320
:102016003354F8FFE5AF54F74FF5AFEB4A7006536C
:10202600EEFE53DFFEED6401700653EEFE43DF0164
:10203600EDFF7E006402700643EE0153DFFEEF649F
:0D204600034E700643EE0143DF017F0022D0
:10205300EFD394017480948040037FFF22EDFB7AD9
:1020630000D394037480948040037FFF22EFC45411
:10207300F0FFE5AF54EF4FF5AFEB4A700653EEFDBB
:1020830053DFFDED6401700653EEFD43DF02EDFF08
:102093007E006402700643EE0253DFFDEF64034EDD
:0B20A300700643EE0243DF027F0022C4
:10210800EFD394017480948040037FFF22EDFB7A23
:1021180000D394037480948040037FFF22EF25E06E
:10212800FFE5AF54FD4FF5AFEB4A700653B6FD53CC
:10213800B5FDED6401700653B6FD43B502EDFF7EB3
:10214800006402700643B60253B5FDEF64034E7097
:0A2158000643B60243B5027F0022E1
:101B2C00EFD394817480948040037FFF22EBD39495
:101B3C00037480948040037FFF22EF247F603A047B
:101B4C00706E90FEC4EDF0EBFF7E00700653B6FB9A
:101B5C0053B5FBEF64014E700653B6FB43B504EF6F
:101B6C0064024E700643B60453B5FBEF64034E702B
:101B7C004443B60443B504803C90FEE4EDF0EBFF27
:101B8C007E00700653B6F753B5F7EF64014E70063E
:101B9C0053B6F743B508EF64024E700643B60853CC
:101BAC00B5F7EF64034E700D43B60843B5088005D6
:081BBC0090FEE4EDF07F002231
:10253900EDFB7A00D3940374809480502FEB7006DE
:1025490053EEFB53DFFBEB64014A700653EEFB438A
:10255900DF04EB64024A700643EE0453DFFBEB64CD
:10256900034A700B43EE0443DF0480037FFF22908C
:07257900FE62EFF07F00227B
:030003000229F3DC
:0629F300B280757801328C
:0300130002002ABE
:01002A0032A3
:0300530002004167
:01004100328C
:03005B000229F97E
:0629F900B2837578043280
:0300830002002652
:0400260075780532B2
:0301430002278E02
:10278E00C0E0C083C08290FD13E030E404E4F0B2F8
:10279E008590FD13E030E504E4F0B286D082D0835C
:0327AE00D0E03246
:100C5800AD07ED6003020CDEC28C120998FED39436
:100C6800037480948040037FFF22E58954FC4EF58D
:100C7800899000011209B1FED394027480948040D7
:100C8800037FFF22EEFF7E007006538E7F5389FBA1
:100C9800EF64014E7006438E805389FBEF64024E69
:100CA80070034389049000021209B1FFE58F54FED6
:100CB8004FF58F900003120A45E5F0F58C9000037C
:100CC800120A45F58A9000061209B17004C28C8098
:100CD80002D28C7F0022ED64016003020D6BC28E8C
:100CE800120998FED394037480948040037FFF22F6
:100CF800EEC454F0FFE58954CF4FF58990000112F6
:100D080009B1FED394027480948040037FFF22EEE1
:100D1800FF7E007006538EBF5389BFEF64014E708B
:100D280006438E405389BFEF64024E7003438940E7
:100D38009000021209B125E0FFE58F54FD4FF58FB1
:100D4800900003120A45E5F0F58D900003120A455C
:100D5800F58B9000061209B17004C28E8002D28E03
:100D68007F0022ED6402706B538EEF900001120930
:100D7800B1FF7E007006538EFB538EF7EF64014E71
:100D88007006438E04538EF7EF64024E7003438E51
:100D9800089000021209B125E025E0FFE58F54FB19
:100DA8004FF58F900003120A45E5F0F5D690000341
:100DB800120A45F5D79000051209B190FEA2F090ED
:100DC80000061209B1C454F0FFE58E54EF4FF58EBA
:100DD8007F0022ED6403707453D1F790000112096B
:100DE800B1FED394027480948040037FFF22EEFF0B
:100DF8007E00700653D1FD53D1FBEF64014E70069F
:100E080043D10253D1FBEF64024E700343D10490E7
:100E180000021209B1FFE5D154FE4FF5D19000034D
:100E2800120A45E5F0F5D4900003120A45F5D5906D
:100E380000051209B190FEA3F09000061209B13323
:100E4800333354F8FFE5D154F7020ED7ED6404604C
:100E580003020EDD53D17F9000011209B1FD7C0021
:100E6800D394027480948040037FFF22ED4C700677
:100E780053D1DF53D1BF9000011209B1640170064C
:100E880043D12053D1BF9000011209B1640270030D
:100E980043D1409000021209B1C454F0FFE5D15487
:100EA800EF4FF5D1900003120A45FDACF0ECF5D2F6
:100EB800AF058FD39000051209B190FEA4F0900001
:100EC800061209B1C43333335480FFE5D1547F4F40
:080ED800F5D17F00227FFF220B
:03000B0002283197
:10283100C0E0C0D0E54E2401F54EE4354DF54DE440
:0E284100354CF54CE4354BF54BD0D0D0E032A1
:03001B0002005E82
:03005E00054F3219
:0300630002000692
:05000600B2ED055032CF
:03009B0002000E52
:05000E00B2EC055132C7
:0300A30002001642
:05001600B2EB055232BF
:080146008F158B168A1789182A
:10014E00EF640160030202C4F522F523F524F525C0
:10015E00F526F519F51A7440251AF582740135192C
:10016E00F583E4F0051AE51A700205196480451945
:10017E0070E4E4F519F51A7400251AF58274003549
:10018E0019F583E4F0051AE51A7002051964804525
:10019E001970E4AB16AA17A918120998FFE598541E
:1001AE003F4FF598EF64C06008EF644060030202B1
:1001BE0073900002120B9C7F807E8D7D5B7C001203
:1001CE000AE68F1E8E1D8D1C8C1BE4FFFE7D01FC2E
:1001DE00AB1EAA1DA91CA81BC3120B7840037FFFE0
:1001EE0022C3E4951EF51EE4951DF51D7401951CA4
:1001FE00F51CE4951BF51BAB16AA17A91890000168
:10020E001209B1FB7A006401702CC28E538EFE531C
:10021E0089BF5389CF438E40AF1EAE1DAD1CAC1BA4
:10022E007808120B898F8D851E8BC2AB5389BF53F5
:10023E008FFDD28E8069EB64024A7026538EEF4397
:10024E008E01538EF7438E04AF1EAE1DAD1CAC1B3C
:10025E007808120B898FD6851ED753AFFB438E10AD
:10026E00803D7FFF22AB16AA17A918120998FF7EB0
:10027E000070149000081209B164017005438E20BD
:10028E00801D538EDF8018EF64804E701290000830
:10029E001209B164017005438780800353877FABD9
:1002AE0016AA17A9189000071209B17004C29C80F3
:1002BE0002D29C7F0022E515640260030203C1F5A1
:1002CE0027F528F529F52AF52BF519F51A74E025E9
:1002DE001AF58274013519F583E4F0051AE51A70E2
:1002EE000205196480451970E4E4F519F51A748055
:1002FE00251AF58274003519F583E4F0051AE51A0E
:10030E00700205196480451970E4AB16AA17A91876
:10031E00120998FF7E0064C06005EF64407077EFAD
:10032E0064C04E7005439A808003539A7F900002FA
:10033E00120B9C7F807E8D7D5B7C00120AE68F1EE9
:10034E008E1D8D1C8C1BE4FFFE7D01FCAB1EAA1DB9
:10035E00A91CA81BC3120B7840037FFF22C3E49590
:10036E001EF51EE4951DF51D7401951CF51CE495F6
:10037E001BF51B538EEF538EF7438E04AF1EAE1D2F
:10038E00AD1CAC1B7808120B898FD6851ED753AFC8
:10039E00FB438E1080037FFF22AB16AA17A918907D
:1003AE0000071209B1C454F0FFE59A54EF4FF59AC5
:1003BE007F0022E515640360030204FDF52CF52D84
:1003CE00F52EF52FF530F519F51A7460251AF5820C
:1003DE0074023519F583E4F0051AE51A7002051951
:1003EE006440451970E4E4F519F51A7400251AF500
:1003FE008274013519F583E4F0051AE51A700205C9
:10040E00196440451970E4AB16AA17A91812099879
:10041E00FF7E0064C06008EF644060030204E0EFFA
:10042E0064C04E700543AC80800353AC7F900002D5
:10043E00120B9C7F807E8D7D5B7C00120AE68F1EE8
:10044E008E1D8D1C8C1BE4FFFE7D01FCAB1EAA1DB8
:10045E00A91CA81BC3120B7840037FFF22C3E4958F
:10046E001EF51EE4951DF51D7401951CF51CE495F5
:10047E001BF51BAB16AA17A9189000011209B1FBA8
:10048E007A006403701D43AC40AF1EAE1DAD1CACB4
:10049E001B7808120B898FD4851ED553D1F043D10A
:1004AE000A8032EB64024A7026538EEF53ACBF5370
:1004BE008EF7438E04AF1EAE1DAD1CAC1B7808121A
:1004CE000B898FD6851ED753AFFB438E1080067FC8
:1004DE00FF227FFF22AB16AA17A918900007120958
:1004EE00B1C454F0FFE5AC54EF4FF5AC7F0022E5FC
:1004FE001564046003020639F531F532F533F5342F
:10050E00F535F519F51A74A0251AF5827402351908
:10051E00F583E4F0051AE51A7002051964204519F1
:10052E0070E4E4F519F51A74C0251AF582740135D4
:10053E0019F583E4F0051AE51A70020519642045D1
:10054E001970E4AB16AA17A918120998FF7E006459
:10055E00C06008EF6440600302061CEF64C04E707A
:10056E0005438480800353847F900002120B9C7F8E
:10057E00807E8D7D5B7C00120AE68F1E8E1D8D1C8B
:10058E008C1BE4FFFE7D01FCAB1EAA1DA91CA81B43
:10059E00C3120B7840037FFF22C3E4951EF51EE4C1
:1005AE00951DF51D7401951CF51CE4951BF51BABF3
:1005BE0016AA17A9189000011209B1FB7A0064045B
:1005CE00701D438440AF1EAE1DAD1CAC1B780812CF
:1005DE000B898FD2851ED353D10F43D1A08032EB1E
:1005EE0064024A7026538EEF5384BF538EF7438EA8
:1005FE0004AF1EAE1DAD1CAC1B7808120B898FD636
:10060E00851ED753AFFB438E1080067FFF227FFFE0
:10061E0022AB16AA17A9189000071209B1C454F0FC
:0D062E00FFE58454EF4FF5847F00227FFF2D
:01063B00229C
:0A29A0008F99752401E52470FC22D4
:10002E00120998FF600C1229A0740129F9E43AFA1A
:03003E0080EE222F
:0A29AA008F9B752901E52970FC22BE
:1028CB00120998FF600C1229AA740129F9E43AFA4B
:0328DB0080EE226A
:0A29B4008FAD752E01E52E70FC2298
:1028DE00120998FF600C1229B4740129F9E43AFA2E
:0328EE0080EE2257
:0A29BE008F85753301E53370FC22AC
:1028F100120998FF600C1229BE740129F9E43AFA11
:0329010080EE2243
:05001E00AE070229AA53
:0300230002258033
:10258000C0E0C083C082C0D075D000C0073098249E
:10259000C298C3E52594807480948040037525001B
:1025A000AF25052574002FF582E43400F583E59905
:1025B000F0752605309905C299752400D007D0D052
:0725C000D082D083D0E0328D
:030043000224A5EF
:1024A500C0E0C083C082C0D075D000C007E59A30B7
:1024B500E025539AFEC3E52A9480748094804003F6
:1024C500752A00AF2A052A74802FF582E43400F5B9
:1024D50083E59BF0752B05E59A30E106539AFD756A
:0D24E5002900D007D0D0D082D083D0E032C3
:03008B000223BA93
:1023BA00C0E0C083C082C0D075D000C007E5AC546D
:1023CA0001602553ACFEC3E52F944074809480408D
:1023DA0003752F00AF2F052F74002FF582E4340107
:1023EA00F583E5ADF0753005E5AC5402600653ACF3
:0F23FA00FD752E00D007D0D0D082D083D0E03236
:030093000224093B
:10240900C0E0C083C082C0D075D000C007E5845445
:102419000160255384FEC3E5349420748094804080
:1024290003753400AF34053474C02FF582E43401E8
:10243900F583E585F0753505E58454026006538416
:0F244900FD753300D007D0D0D082D083D0E032E1
:101F35009000011209B1FFE5DE54F04FF5DE900087
:101F4500021209B1C43354E0FFE5DE54DF4FF5DE7C
:101F5500120998D3941F748094805037900003120F
:101F650009B1FFD394017480948050279000041226
:101F750009B1FED39403748094805017EEC4335492
:101F8500E0FEEFC433333354804EFF1209984F906F
:041F9500FEA8F02290
:0D296E00EF6401700443BC802253BC7F2243
:101DDC00EFD3940F7480948040028069E4F5BDF5D4
:101DEC00BEE5BC54F044404FF5BC000000000000C0
:101DFC0000000000E4FDEDC394FA7480948050451B
:101E0C00E5BC30E53D53BCDFE5DEAFBD30E50EEFA4
:101E1C00FEACBEECFBEEF573EBF574802075730035
:101E2C008F74E5BEC4540FFBE574C4F8540FC86836
:101E3C00FFE573C454F048F573EF4BF574AE73AF14
:091E4C0074220D80B17E107F00AC
:011E5500226A
:03002B000200567A
:0400560053BCDF3286
:101CE5009000021209B16401702990FE80E0444021
:101CF500F090FE82E4F0120998543FFF90FE80E0D8
:101D050054C04FF09000031209B1640190FE887031
:101D15002C803090FE80E054BFF090FE84E4F0907B
:101D250000041209B125E0FF90FE85E054014FF053
:101D35009000051209B1640190FE857006E054FE1D
:101D4500F08004E04401F09000011209B190FE809A
:0C1D55007005E0547FF022E04480F02292
:0829EB0090FE82E05480FF22FF
:0C29940090FE82E030E6F9E054BFF02233
:0929D10090FE817401F0022994CA
:0E29520090FE86EFF090FE817402F002299450
:062925001229D112295213
:09292B0090FE817403F00229946E
:0F29340090FE817404F012299490FE87E0FF2238
:0E29600090FE82E4F090FE817405F00229944E
:0F29430090FE827401F090FE817405F0022994D9
:0929DA0090FE817406F0022994BC
:0D297B0090FE86EDF090FE81EFF0022994B1
:10266B008B5C8A5D895EAE05122925AF0612295255
:10267B0012292BAB5C055EE55EAA5D7002055D144D
:10268B00F9120998FF12295212292BD55FE502295D
:01269B00DA64
:1025C700AE07122925AF0512295212292B1229D13C
:1025D700EE4401FF12295212292B122934EF120956
:1025E700DE740129F9E43AFAE5656401600312290A
:0A25F70060D565E61229430229DAD7
:0300C300021A8995
:101A8900C0E0C083C082C0D075D000C006C0079036
:101A9900FE84E030E606E054BFF0807A90FE84E0F0
:101AA90030E535E054DFF0E5716005757100806659
:101AB900E570600D75700090FE87E0F57224758001
:101AC9003490FE87E0FFAE72057274752EF582E4DC
:101AD9003403F583EFF0803E90FE84E030E424E0A7
:101AE90054EFF0E030E10890FE8674FFF08027059E
:101AF9007274752572F582E43403F583E090FE86ED
:101B0900F0801390FE84E030E30CE054F7F0757137
:101B190001757001D20BD007D006D0D0D082D08306
:031B2900D0E032D7
:101157009000021209B1D394637480948040037F96
:10116700FF229000031209B1D3940C74809480403D
:10117700037FFF229000041209B1D3941F74809457
:101187008040037FFF229000051209B1D3941774A2
:1011970080948040037FFF229000061209B1D39408
:1011A7003B7480948040037FFF229000071209B1AF
:1011B700D3943B7480948040037FFF2290000812F1
:1011C70009B1D3947F7480948040037FFF229000FD
:1011D700091209B1D394177480948040037FFF22CA
:1011E70090000A1209B1D3943B7480948040037F26
:1011F700FF2290000B1209B1FED3943B74809480B8
:1012070040037FFF2290000C1209B1FDD3947F7435
:1012170080948040037FFF229000021209B190FE64
:1012270068F09000031209B190FE69F09000041273
:1012370009B190FE6AF09000051209B190FE6BF0BB
:101247009000061209B190FE6CF09000071209B1E8
:1012570090FE6DF09000081209B190FE6EF09000BC
:10126700091209B190FE64F090000A1209B190FECC
:1012770065F0A3EEF0A3EDF09000011209B170152F
:1012870090FE047480F090FE04E030E0F990FE6177
:101297007403F0801390FE0874C0F090FE08E030ED
:1012A700E0F990FE617401F01209986401700E90E4
:1012B700FE6004F090FE61E030E00780F790FE608A
:0512C700E4F07F0022AD
:030123000226C7EA
:1026C700C0E0C083C08290FE63E030E708B281E0DB
:1026D700547FF0D20990FE63E030E308B280E05403
:0B26E700F7F0D20AD082D083D0E0329E
:101C65000217D7E493A3F8E493A34003F68001F2A7
:101C750008DFF48029E493A3F85407240CC8C33380
:101C8500C4540F4420C8834004F456800146F6DF4F
:101C9500E4800B01020408102040809029E3E47ED3
:101CA500019360BCA3FF543F30E509541FFEE49344
:101CB500A360010ECF54C025E060A840B8E493A30B
:101CC500FAE493A3F8E493A3C8C582C8CAC583CA36
:101CD500F0A3C8C582C8CAC583CADFE9DEE780BEEE
:0129EA0000EC
:10099800BB010689828A83E0225002E722BBFE025D
:0909A800E32289828A83E4932290
:1009B100BB010CE58229F582E5833AF583E02250FB
:1009C10006E92582F8E622BBFE06E92582F8E22245
:0D09D100E58229F582E5833AF583E493225F
:1009DE00BB010689828A83F0225002F722BBFE01F8
:0209EE00F322F2
:1009F000BC000BBE0029EF8DF084FFADF022E4CCEB
:100A0000F875F008EF2FFFEE33FEEC33FCEE9DECB3
:100A1000984005FCEE9DFE0FD5F0E9E4CEFD22EDF9
:100A2000F8F5F0EE8420D21CFEADF075F008EF2F43
:100A3000FFED33FD4007985006D5F0F222C398FD34
:050A40000FD5F0EA22D1
:100A4500BB0110E58229F582E5833AF583E0F5F0EF
:100A5500A3E0225009E92582F886F008E622BBFECC
:100A65000AE92582F8E2F5F008E222E5832AF58312
:080A7500E993F5F0A3E99322D7
:100A7D00F8BB0111E58229F582E5833AF583E8F0AB
:100A8D00E5F0A3F0225009E92582C8F608A6F02268
:0D0A9D00BBFE09E92582C8F2E5F008F2224F
:100AAA0075F008758200EF2FFFEE33FECD33CDCC03
:100ABA0033CCC58233C5829BED9AEC99E582984086
:100ACA000CF582EE9BFEED9AFDEC99FC0FD5F0D663
:100ADA00E4CEFBE4CDFAE4CCF9A88222B800C1B98D
:100AEA000059BA002DEC8BF084CFCECDFCE5F0CBCB
:100AFA00F97818EF2FFFEE33FEED33FDEC33FCEB04
:100B0A0033FB10D703994004EB99FB0FD8E5E4F9BE
:100B1A00FA227818EF2FFFEE33FEED33FDEC33FCAB
:100B2A00C933C910D7059BE99A4007EC9BFCE99A9F
:100B3A00F90FD8E0E4C9FAE4CCFB2275F010EF2FE4
:100B4A00FFEE33FEED33FDCC33CCC833C810D707E4
:100B5A009BEC9AE899400AED9BFDEC9AFCE899F81F
:0E0B6A000FD5F0DAE4CDFBE4CCFAE4C8F922B2
:100B7800EB9FF5F0EA9E42F0E99D42F0E89C45F0D3
:010B8800224A
:100B8900E8600FECC313FCED13FDEE13FEEF13FF4A
:030B9900D8F1226E
:100B9C00BB010DE58229F582E5833AF583020BF959
:100BAC005007E92582F8020BECBBFE07E92582F819
:100BBC00020C05E58229F582E5833AF583020C12D5
:100BCC007401FF3395E0FEFDFC080808E62FFFF6E4
:100BDC0018E63EFEF618E63DFDF618E63CFCF6225D
:10063C00E51B240FF8E6051B22780C300702780F17
:10064C00E475F001120C220209982000EB7F2ED2E7
:10065C00008018EF540F2490D43440D4FF30040B96
:10066C00EF24BFB41A0050032461FFE51C6002158F
:10067C001C051FE51F7002051E30070D780CE47574
:10068C00F001120C22EF0209DE02001E7403D207E5
:10069C008003E4C207F51B8B0C8A0D890EE4F51C54
:1006AC00F51EF51FE51C60077F2012067780F57597
:1006BC001DFFC201C200C202C203C205C206C208AB
:1006CC00120645FF700D3007057F00120688AF1F1C
:1006DC00AE1E22B4255FC2D5C204120645FF24D03B
:1006EC00B40A00501A75F00A781C30D50508B6FF0C
:1006FC000106C6A426F620D5047002D20380D924A4
:10070C00CFB41A00EF5004C2E5D204020888D2011B
:10071C0080C6D20080C0D20280BCD2D580BAD205AD
:10072C0080B47F201206772002077401B51C0040AC
:10073C00F112063CFF1206770206B0D208D20680F0
:10074C009512063CFB12063CFA12063CF94A4B7019
:10075C000679597A097BFF20022EE51C602A7E005F
:10076C008E827583001209B160060EEE651D70F065
:10077C00C2D5EBC0E0EAC0E0E9C0E0EE1208CFD091
:10078C00E0F9D0E0FAD0E0FB120998FF60AAEBC0C8
:10079C00E0EAC0E0E9C0E0120677D0E02401F9D02D
:1007AC00E03400FAD0E0FBE51D0460DCD51DD980F7
:1007BC00877BFF7A0879CBD202809C7910800279F2
:1007CC0008C206C2088008D2D5790A8004790AC208
:1007DC00D5E51D047002F51DE4FAFDFEFF12063C82
:1007EC00FC7B0820011312063CFD7B1030000A1222
:1007FC00063CFE12063CFF7B20EC3382D592D55092
:10080C0013C3E43000069FFFE49EFEE42001039D29
:10081C00FDE49CFCE4CBF8C201EC700CCFCECDCC4B
:10082C00E824F8F870F38017C3EF33FFEE33FEEDD6
:10083C0033FDEC33FCEB33FB994002FB0FD8E9EBB7
:10084C00300105F8D0E0C448B201C0E00AEC4D4ECE
:10085C004F78207B0070C2EAB51D0040BCC0E0128E
:10086C0008D1D0F0D0E0200104C4C0E0C4B201C073
:10087C00F0120660D0F0D5F0EB0206B0120C320785
:10088C004D5307C758071E4C071A4207CB4F07D3C7
:0F089C004407D34907334307D95507BD4607BD66
:1008AB004507BD4709795007222D07262E07492BEF
:1008BB00072A2307472009622A06E248000007415E
:1008CB003F3F3F00790AA2D5200314300509B91028
:1008DB00020404B9080104A2D52006025001042029
:1008EB0002689202B51C005034C0E07F203003191F
:1008FB007F30A20272067205500F120928C202C283
:10090B0006C205C2087F30800F300503E9C0E01234
:10091B000677300503D0E0F9D0E0B51CCC300517D5
:10092B007F30B9100C1206777F583004077F788020
:10093B0003B908031206773002057F2D0206777F75
:10094B00202008F87F2B2006F322920280CF286EFE
:10095B00756C6C2900D20112063C3001F8C201788B
:10096B001C30D50108F60206E22D504349581206F9
:10097B003C2403B405004001E4900974931206680B
:0D098B00743A120668D203751C040207C7F7
:0D0BEC00E6FB08E6F908E6FA08E6CBF82279
:0C0BF900E0F8A3E0F9A3E0FAA3E0FB227F
:0D0C0500E2FB08E2F908E2FA08E2CBF8226F
:100C1200E493F8740193F9740293FA740393FB2238
:100C2200FAE6FB0808E6F925F0F618E6CA3AF622D3
:100C3200D083D082F8E4937012740193700DA3A351
:100C420093F8740193F5828883E473740293686065
:060C5200EFA3A3A380DF65
:00000001FF
