:030000000215FCEA
:0C15FC00787FE4F6D8FD758121021643CB
:1016FE00E4900255F043BA80121688121FAB121DE9
:10170E005312176C121F90D2AF12156E1212B890A0
:10171E000255EFF0900251E0F8A3E0F9A3E0FAA32E
:10172E00E0FB900280E0FCA3E0FDA3E0FEA3E0C39B
:10173E009BFFEE9AFEED99FDEC98FCE47BE87A03B4
:10174E00F9F8C3120C6550C4900280E0FCA3E0FDD2
:0E175E00A3E0FEA3E0FF900251120CEE80AE5D
:1016880090025774FFF0E4900256F07B017A0279D9
:10169800567F051210417B017A0279567F0112109C
:1016A800417B017A0279567F021210417B017A024E
:1016B80079567F031210417B017A0279567F041212
:1016C80010417B017A0279567F061210417B017A1C
:1016D8000279567F071210417B017A027956E4FF9E
:1016E8001210414393075394F84395C053963F53C0
:0516F80095EF43961080
:0116FD0022CA
:101D5300E4900256F0A304F0E4A3F0A374A2F0A36A
:101D63007440F090025C7401F0FB7A027956E4FF50
:101D7300120DB9E4FD7F01121B55E4900256F0A346
:101D830004F0E4A3F0A374A2F0A37440F090025C07
:101D93007401F0FB7A027956FF120DB9E4FD7F015D
:031DA300021BAA76
:10176C009002567440F0A37402F0A3120CFA00001D
:10177C00258090025D7401F0E4A3F07B017A02797C
:10178C00567F011201467D017F01121CFE9002560C
:10179C007440F0A37402F0A3120CFA0000258090A0
:1017AC00025D7401F0FB7A0279567F041201467DCA
:1017BC00017F011218EA53A23FE5BA54FB4404F529
:0117CC00BA62
:0117CD0022F9
:101FAB009002577410F09002567403F07B017A0282
:071FBB0079567F020210417C
:101EC00090025DEEF0A3EFF0D390025EE0940090FC
:101ED000025DE094004019B2A47F017E00121FC28F
:101EE00090025EE024FFF090025DE034FFF080D8C5
:031EF000C2A42267
:0D004600544B256275203D2025752E0A00C3
:101DF600410214005E0233000000000000000000F3
:101E060000000000000000000000000000000000CC
:101E160000000000005E0215000000000000000047
:101E260000000000000000000000000000000000AC
:061E3600000000000000A6
:101F900090FB4074C0F0A37470F0A37416F0A374A7
:0B1FA00001F090FB48E4F043AF80220A
:1012B800E4900256F0A3120CFA00000000E4900239
:1012C8005BF0A3F0900214E070030214D0E4F090F5
:1012D800024FE0FEA3E0FFC3900232E09FFF9002BE
:1012E80031E09EFE90025BF0A3EFF0D394E8EE9419
:1012F800034032E0949890025BE0943A50279002C1
:10130800567401F090024FE0FEA3E0FFC390023252
:10131800E09FFF900231E09EFED3EF94E8EE940345
:1013280050E20214C790024DE0FEA3E0FFC3900212
:1013380030E09FFF90022FE09EFE90025BF0A3EF4B
:10134800F0D394E8EE94034055E0949890025BE063
:10135800943A504A9002567402F090024DE0FEA36F
:10136800E0FFC3900230E09FFF90022FE09EFED383
:10137800EF94E8EE94034023900257120CB97B8057
:101388007A1A79067800C3120C6550CE900256740A
:1013980016F07F0A7E00121EC080BF0214C790029A
:1013A8004BE0FEA3E0FFC390022EE09FFF90022DCA
:1013B800E09EFE90025BF0A3EFF0D394E8EE940376
:1013C8004032E0949890025BE0943A50279002569D
:1013D8007403F090024BE0FEA3E0FFC390022EE0FE
:1013E8009FFF90022DE09EFED3EF94E8EE94035009
:1013F800E20214C7900241E0FEA3E0FFC39002247A
:10140800E09FFF900223E09EFE90025BF0A3EFF0C6
:10141800D394E8EE94034031E0949890025BE09412
:101428003A50269002567404F0900241E0FEA3E080
:10143800FFC3900224E09FFF900223E09EFED3EFBB
:1014480094E8EE940350E2807690023FE0FEA3E039
:10145800FFC3900222E09FFF900221E09EFE9002CF
:101468005BF0A3EFF0D394E8EE9403405BE094982C
:1014780090025BE0943A50509002567405F0900246
:101488003FE0FEA3E0FFC3900222E09FFF9002210D
:10149800E09EFED3EF94E8EE9403402390025712A7
:1014A8000CB97B807A1A79067800C3120C6550CE85
:1014B8009002567437F07F0A7E00121EC080BF7FEC
:0D14C8000A7E00121EC08000900256E0FF58
:0114D50022F4
:10156E00E4900256F0F0900256E0C3941474809406
:10157E0080501590FB4574C0F07F147E00121FC280
:10158E00900256E004F080DEE4900256F09002568F
:10159E00E0FFC3940F748094805052EF25E0243303
:1015AE00F582E43402F583E0FCA3E0FDEF25E024B0
:1015BE0015F582E43402F583ECF0A3EDF07BFF7AAF
:1015CE00007946900256E090025AF025E02415F577
:1015DE0082E43402F583E0FFA3E090025BCFF0A338
:0D15EE00EFF012081F900256E004F080A0FC
:0115FB0022CD
:03011B0002183097
:10183000C0E0C083C082C0D075D000C004C005C065
:0118400007A0
:1018410090FB47E0FF30E604E04440F0EF30E72D45
:10185100540FFF90FB47E04480F090FB49E0FCA36C
:10186100E0FDEF25E02433F582E43402F583ECF06A
:0D187100A3EDF0EF640E700590021404F07A
:0F187E00D007D005D004D0D0D082D083D0E032B4
:10104100EFD394077480948040037FFF22120B1921
:10105100FED394037480948040037FFF22EF704499
:10106100EE700B900001120B32F452935294120B5A
:10107100196401700B900001120B324293F45294E7
:10108100120B19FE6402700A900001120B32429396
:101091004294EE6403700D900001120B32FEF45283
:1010A10093EE4294EF64017046120B19FE700B909F
:1010B1000001120B32F452915292EE6401700B90C6
:1010C1000001120B324291F45292120B1964027018
:1010D1000A900001120B3242914292120B196403E1
:1010E100700D900001120B32FEF45291EE4292EF1C
:1010F10064027046120B19FE700B900001120B3244
:10110100F452955296EE6401700B900001120B326D
:101111004295F45296120B196402700A9000011262
:101121000B3242954296120B196403700D90000127
:10113100120B32FEF45295EE4296EF6403704612A2
:101141000B19FE700B900001120B32F452B152B226
:10115100EE6401700B900001120B3242B1F452B2F5
:10116100120B196402700A900001120B3242B14253
:10117100B2120B196403700D900001120B32FEF4D0
:1011810052B1EE42B2EF64047046120B19FE700BBD
:10119100900001120B32F452B352B4EE6401700BA1
:1011A100900001120B3242B3F452B4120B196402D3
:1011B100700A900001120B3242B342B4120B19644F
:1011C10003700D900001120B32FEF452B3EE42B4E3
:1011D100EF64057046120B19FE700B900001120BA3
:1011E10032F452C952CAEE6401700B900001120B25
:1011F1003242C9F452CA120B196402700A900001FA
:10120100120B3242C942CA120B196403700D9000CD
:1012110001120B32FEF452C9EE42CAEF6406704667
:10122100120B19FE700B900001120B32F452CB52CB
:10123100CCEE6401700B900001120B3242CBF452E0
:10124100CC120B196402700A900001120B3242CBCE
:1012510042CC120B196403700D900001120B32FE87
:10126100F452CBEE42CCEF64077049120B19FF7EAA
:1012710000700B900001120B32F452E152E2EF6464
:10128100014E700B900001120B3242E1F452E21256
:101291000B196402700A900001120B3242E142E222
:1012A100120B196403700D900001120B32FFF452FE
:0712B100E1EF42E27F0022A1
:101FC2007D607C09ED1D70011C144C70F7EF1F70D1
:061FD200011E144E70EA2E
:011FD80022E6
:101E8800EFD394017480948040037FFF22EF701099
:101E9800C289120B197004C2888002D2887F00227E
:101EA800EF64017010C28B120B197004C28A800291
:081EB800D28A7F00227FFF2285
:03000300021FD900
:101FD900C0E0C083C082B2809002887401F0D082D0
:051FE900D083D0E032BE
:0300130002000EDA
:01000E0032BF
:0300530002000F99
:01000F0032BE
:03005B00021FEE93
:101FEE00C0E0C083C082B2839002887404F0D082B5
:051FFE00D083D0E032A9
:0300830002204216
:10204200C0E0C083C0829002887405F0D082D08341
:03205200D0E032A9
:0301430002011E98
:10011E00C0E0C083C08290FD13E030E404E4F0B28E
:10012E008590FD13E030E504E4F0B286D082D083F2
:03013E00D0E032DC
:101B5500EFFB7A00D394017480948040037FFF22C9
:101B6500EDD394037480948040037FFF22EB4A7089
:101B750004C2A98002D2A9ED700553B7FDC2B9ED23
:101B8500FF7E006401700553B7FDD2B9EF64024EC4
:101B9500700543B702C2B9EF64034E700543B7023F
:051BA500D2B97F00220F
:101BAA00EFFB7A00D394017480948040037FFF2274
:101BBA00EDD394037480948040037FFF22EB4A7034
:101BCA0004C2AB8002D2ABED700553B7F7C2BBEDCE
:101BDA00FF7E006401700553B7F7D2BBEF64024E73
:101BEA00700543B708C2BBEF64034E700543B708DC
:051BFA00D2BB7F0022B8
:101F1E00EFD394017480948040037FFF22EDD3941D
:101F2E00037480948040037FFF22EF25E025E0FFBD
:0A1F3E00E5AF54FB4FF5AFE4FF22BE
:101F4800EFD394017480948040037FFF22EDD394F3
:101F5800037480948040037FFF22EFC43354E0FF72
:0A1F6800E5AF54DF4FF5AFE4FF22B0
:101EF300EFD394017480948040037FFF22EDD39449
:101F0300037480948040037FFF22EFC4333354C0B3
:0B1F1300FFE5AF54BF4FF5AFE4FF2225
:101BFF00EFFB7A00D394017480948040037FFF221F
:101C0F00EDD394037480948040037FFF22EB4A70DE
:101C1F0004C2A88002D2A8ED700553B7FEC2B8ED7A
:101C2F00FF7E006401700553B7FED2B8EF64024E19
:101C3F00700543B701C2B8EF64034E700543B70197
:051C4F00D2B87F002265
:101C5400EFFB7A00D394017480948040037FFF22C9
:101C6400EDD394037480948040037FFF22EB4A7089
:101C740004C2AA8002D2AAED700553B7FBC2BAED22
:101C8400FF7E006401700553B7FBD2BAEF64024EC5
:101C9400700543B704C2BAEF64034E700543B7043A
:051CA400D2BA7F00220E
:10006600EFD394017480948040037FFF22EFC45441
:0C007600F0FFE58F54EF4FF58FE4FF2200
:10002600EFD394017480948040037FFF22EFC433A2
:0D00360054E0FFE58F54DF4FF58FE4FF220B
:101F7200EFD394017480948040037FFF22EFC43337
:0E1F82003354C0FFE58F54BF4FF58FE4FF22AC
:101CA900EFFB7A00D394017480948040037FFF2274
:101CB900EDD394037480948040037FFF22EB4A7034
:101CC90004C2AD8002D2ADED700553B7DFC2BDEDE0
:101CD900FF7E006401700553B7DFD2BDEF64024E89
:101CE900700543B720C2BDEF64034E700543B720AA
:051CF900D2BD7F0022B6
:10194500EDFB7A00D394037480948040037FFF22DB
:10195500EF30E10543E620800353E6DFEF30E00595
:1019650043E610800353E6EFEB4A700653B6DF53A8
:10197500B5DFED6401700653B6DF43B520EDFF7E9C
:10198500006402700643B62053B5DFEF64034E7062
:0A1995000643B62043B5207F002270
:1000A600EFD394017480948040037FFF22EBD394B6
:1000B600037480948040037FFF22EF64017012ED89
:1000C60090FE817006E0547FF08011E04480F0805D
:1000D6000BEF700890FE83E054874DF0EBFF7E0037
:1000E600700653B6DF53B5DFEF64014E700653B6A4
:1000F600DF43B520EF64024E700643B62053B5DFEA
:0F010600EF64034E700643B62043B5207F0022FE
:101CFE00EFFB7A00D394017480948040037FFF221F
:101D0E00EDD394037480948040037FFF22EB4A70DE
:101D1E0004C2AC8002D2ACED700553B7EFC2BCED7D
:101D2E00FF7E006401700553B7EFD2BCEF64024E24
:101D3E00700543B710C2BCEF64034E700543B71075
:051D4E00D2BC7F002261
:101AA900EFD394017480948040037FFF22EDFB7A89
:101AB90000D394037480948040037FFF22E5AF54E0
:101AC900FE4FF5AFEB4A700653B6FE53B5FEED6413
:101AD90001700653B6FE43B501EDFF7E0064027046
:101AE9000643B60153B5FEEF64034E700643B601D3
:061AF90043B5017F00224D
:10188D00EFD394017480948040037FFF22EDFB7AA7
:10189D0000D394037480948040037FFF22EF333391
:1018AD003354F8FFE5AF54F74FF5AFEB4A700653DD
:1018BD00EEFE53DFFEED6401700653EEFE43DF01D5
:1018CD00EDFF7E006402700643EE0153DFFEEF6410
:0D18DD00034E700643EE0143DF017F002241
:1018EA00EFD394017480948040037FFF22EDFB7A4A
:1018FA0000D394037480948040037FFF22EFC45482
:10190A00F0FFE5AF54EF4FF5AFEB4A700653EEFD2B
:10191A0053DFFDED6401700653EEFD43DF02EDFF78
:10192A007E006402700643EE0253DFFDEF64034E4D
:0B193A00700643EE0243DF027F002234
:10199F00EFD394017480948040037FFF22EDFB7A94
:1019AF0000D394037480948040037FFF22EF25E0DF
:1019BF00FFE5AF54FD4FF5AFEB4A700653B6FD533D
:1019CF00B5FDED6401700653B6FD43B502EDFF7E24
:1019DF00006402700643B60253B5FDEF64034E7008
:0A19EF000643B60243B5027F002252
:1014D600EFD394817480948040037FFF22EBD394F2
:1014E600037480948040037FFF22EF247F603A04D8
:1014F600706E90FEC4EDF0EBFF7E00700653B6FBF7
:1015060053B5FBEF64014E700653B6FB43B504EFCB
:1015160064024E700643B60453B5FBEF64034E7087
:101526004443B60443B504803C90FEE4EDF0EBFF83
:101536007E00700653B6F753B5F7EF64014E70069A
:1015460053B6F743B508EF64024E700643B6085328
:10155600B5F7EF64034E700D43B60843B508800532
:0815660090FEE4EDF07F00228D
:101E4100EDFB7A00D3940374809480502FEB7006DD
:101E510053EEFB53DFFBEB64014A700653EEFB4389
:101E6100DF04EB64024A700643EE0453DFFBEB64CC
:101E7100034A700B43EE0443DF0480037FFF22908B
:071E8100FE62EFF07F00227A
:100DB900AD07ED6003020E3FC28C120B19FED394EE
:100DC900037480948040037FFF22E58954FC4EF52B
:100DD90089900001120B32FED394027480948040F2
:100DE900037FFF22EEFF7E007006538E7F5389FB3F
:100DF900EF64014E7006438E805389FBEF64024E07
:100E09007003438904900002120B32FFE58F54FEF0
:100E19004FF58F900003120B5FE5F0F58C900003FE
:100E2900120B5FF58A900006120B327004C28C8097
:100E390002D28C7F0022ED64016003020ECCC28EC7
:100E4900120B19FED394037480948040037FFF2210
:100E5900EEC454F0FFE58954CF4FF5899000011293
:100E69000B32FED394027480948040037FFF22EEFC
:100E7900FF7E007006538EBF5389BFEF64014E7029
:100E890006438E405389BFEF64024E700343894085
:100E9900900002120B3225E0FFE58F54FD4FF58FCC
:100EA900900003120B5FE5F0F58D900003120B5FC4
:100EB900F58B900006120B327004C28E8002D28E1E
:100EC9007F0022ED6402706B538EEF900001120BCC
:100ED90032FF7E007006538EFB538EF7EF64014E8E
:100EE9007006438E04538EF7EF64024E7003438EEF
:100EF90008900002120B3225E025E0FFE58F54FB34
:100F09004FF58F900003120B5FE5F0F5D6900003C3
:100F1900120B5FF5D7900005120B3290FEA2F090EC
:100F29000006120B32C454F0FFE58E54EF4FF58ED4
:100F39007F0022ED6403707453D1F7900001120B06
:100F490032FED394027480948040037FFF22EEFF27
:100F59007E00700653D1FD53D1FBEF64014E70063C
:100F690043D10253D1FBEF64024E700343D1049085
:100F79000002120B32FFE5D154FE4FF5D190000368
:100F8900120B5FE5F0F5D4900003120B5FF5D590D5
:100F99000005120B3290FEA3F0900006120B3233BB
:100FA900333354F8FFE5D154F7021038ED64046087
:100FB9000302103E53D17F900001120B32FD7C00D9
:100FC900D394027480948040037FFF22ED4C700615
:100FD90053D1DF53D1BF900001120B326401700667
:100FE90043D12053D1BF900001120B326402700328
:100FF90043D140900002120B32C454F0FFE5D154A2
:10100900EF4FF5D1900003120B5FFDACF0ECF5D278
:10101900AF058FD3900005120B3290FEA4F090001B
:1010290006120B32C43333335480FFE5D1547F4F5A
:08103900F5D17F00227FFF22A8
:041E3C0041027F00E0
:03000B000217CE0B
:1017CE00C0E0C0F0C083C082C0D075D000C000C0E1
:0717DE0004C005C006C007AE
:1017E500900280E0FCA3E0FDA3E0FEA3E02401FF5E
:1017F500E43EFEE43DFDE43CFC900280120CEE90DC
:10180500027FE004F0C39414748094804008E4F0EF
:0618150090FB4574C0F0D9
:10181B00D007D006D005D004D000D0D0D082D08352
:05182B00D0F0D0E03216
:03001B000220556B
:10205500C0E0C083C082900284E004F0D082D083C7
:03206500D0E03296
:0300630002200375
:10200300C0E0C083C082B2ED900285E004F0D082CC
:05201300D083D0E03293
:03009B0002201828
:10201800C0E0C083C082B2EC900286E004F0D082B7
:05202800D083D0E0327E
:0300A30002202D0B
:10202D00C0E0C083C082B2EB900287E004F0D082A2
:05203D00D083D0E03269
:10014600900260EBF0A3EAF0A3E9F090025FEFF013
:100156006401600302032D900000F0A3F0A3F0A356
:10016600F0A3F0900263F0A3F0900263E0FEA3E038
:10017600FFC39420EE9400501C74F42FF582740093
:100186003EF583E4F0900264E004F070DC900263D4
:10019600E004F080D4E4900263F0A3F0900263E000
:1001A600FEA3E0FFC39420EE9400501C74142FF5B8
:1001B6008274003EF583E4F0900264E004F070DCA3
:1001C600900263E004F080D4900260E0FBA3E0FAC2
:1001D600A3E0F9120B19FFE598543F4FF598EF6429
:1001E600C06008EF644060030202D2900002120C65
:1001F600897F807E8D7D5B7C00120BD39002651219
:100206000CEEE4FFFE7D01FC900265E0F8A3E0F948
:10021600A3E0FAA3E0FBC3120C6540037FFF229024
:100226000265E0F8A3E0F9A3E0FAA3E0FBC3E49BD0
:10023600FFE49AFE740199FDE498FC900265120CA5
:10024600EE900260E0FBA3E0FAA3E0F99000011251
:100256000B32FB7A0064017038C28E538EFE5389CE
:10026600BF5389CF438E40900265E0FCA3E0FDA317
:10027600E0FEA3E0FF7808120C768F8D900265A34E
:10028600A3A3E0F58BC2AB5389BF538FFDD28E80FB
:100296007AEB64024A7032538EEF438E01538EF727
:1002A600438E04900265E0FCA3E0FDA3E0FEA3E01C
:1002B600FF7808120C768FD6900265A3A3A3E0F50B
:1002C600D753AFFB438E1080427FFF22900260E03F
:1002D600FBA3E0FAA3E0F9120B19FF7E007014905D
:1002E6000008120B3264017005438E20801D538E68
:1002F600DF8018EF64804E7012900008120B326493
:10030600017005438780800353877F900260E0FB7E
:10031600A3E0FAA3E0F9900007120B327004C29C26
:100326008002D29C7F002290025FE064026003029A
:10033600047B900005F0A3F0A3F0A3F0A3F09002D5
:1003460063F0A3F0900263E0FEA3E0FFC39480EEA7
:100356009400501C74342FF58274013EF583E4F04A
:10036600900264E004F070DC900263E004F080D454
:10037600E4900263F0A3F0900263E0FEA3E0FFC303
:100386009480EE9400501C74342FF58274003EF570
:1003960083E4F0900264E004F070DC900263E00411
:1003A600F080D4900260E0FBA3E0FAA3E0F9120B20
:1003B60019FF7E0064C06008EF64406003020459C0
:1003C600EF64C04E7005439A808003539A7F900075
:1003D60002120C897F807E8D7D5B7C00120BD39090
:1003E6000265120CEEE4FFFE7D01FC900265E0F86A
:1003F600A3E0F9A3E0FAA3E0FBC3120C6540037F78
:10040600FF22900265E0F8A3E0F9A3E0FAA3E0FB7F
:10041600C3E49BFFE49AFE740199FDE498FC900204
:1004260065120CEE538EEF538EF7438E04900265E1
:10043600E0FCA3E0FDA3E0FEA3E0FF7808120C7643
:100446008FD6900265A3A3A3E0F5D753AFFB438EE7
:100456001080037FFF22900260E0FBA3E0FAA3E096
:10046600F9900007120B32C454F0FFE59A54EF4F8F
:10047600F59A7F002290025FE0640360030206168D
:1004860090000AF0A3F0A3F0A3F0A3F0900263F0AB
:10049600A3F0900263E0FEA3E0FFC39440EE940055
:1004A600501C74B42FF58274013EF583E4F090027B
:1004B60064E004F070DC900263E004F080D4E49021
:1004C6000263F0A3F0900263E0FEA3E0FFC3944052
:1004D600EE9400501C74B42FF58274003EF583E44C
:1004E600F0900264E004F070DC900263E004F080B7
:1004F600D4900260E0FBA3E0FAA3E0F9120B19FF27
:100506007E0064C06008EF644060030205F4EF6497
:10051600C04E700543AC80800353AC7F900002123E
:100526000C897F807E8D7D5B7C00120BD3900265EB
:10053600120CEEE4FFFE7D01FC900265E0F8A3E0FC
:10054600F9A3E0FAA3E0FBC3120C6540037FFF2288
:10055600900265E0F8A3E0F9A3E0FAA3E0FBC3E4A8
:100566009BFFE49AFE740199FDE498FC90026512E3
:100576000CEE900260E0FBA3E0FAA3E0F990000124
:10058600120B32FB7A006403702943AC409002657B
:10059600E0FCA3E0FDA3E0FEA3E0FF7808120C76E2
:1005A6008FD4900265A3A3A3E0F5D553D1F043D130
:1005B6000A803EEB64024A7032538EEF53ACBF534F
:1005C6008EF7438E04900265E0FCA3E0FDA3E0FEF7
:1005D600A3E0FF7808120C768FD6900265A3A3A33A
:1005E600E0F5D753AFFB438E1080067FFF227FFFD7
:1005F60022900260E0FBA3E0FAA3E0F99000071264
:100606000B32C454F0FFE5AC54EF4FF5AC7F00223B
:1006160090025FE0640460030207B190000FF0A34C
:10062600F0A3F0A3F0A3F0900263F0A3F0900263AE
:10063600E0FEA3E0FFC39420EE9400501C74F42F58
:10064600F58274013EF583E4F0900264E004F070F4
:10065600DC900263E004F080D4E4900263F0A3F03F
:10066600900263E0FEA3E0FFC39420EE9400501CCA
:1006760074142FF58274013EF583E4F0900264E071
:1006860004F070DC900263E004F080D4900260E035
:10069600FBA3E0FAA3E0F9120B19FF7E0064C06029
:1006A60008EF6440600302078FEF64C04E70054395
:1006B6008480800353847F900002120C897F807EA1
:1006C6008D7D5B7C00120BD3900265120CEEE4FF6D
:1006D600FE7D01FC900265E0F8A3E0F9A3E0FAA331
:1006E600E0FBC3120C6540037FFF22900265E0F831
:1006F600A3E0F9A3E0FAA3E0FBC3E49BFFE49AFEC0
:10070600740199FDE498FC900265120CEE9002606B
:10071600E0FBA3E0FAA3E0F9900001120B32FB7AAA
:100726000064047029438440900265E0FCA3E0FD68
:10073600A3E0FEA3E0FF7808120C768FD290026544
:10074600A3A3A3E0F5D353D10F43D1A0803EEB641E
:10075600024A7032538EEF5384BF538EF7438E0492
:10076600900265E0FCA3E0FDA3E0FEA3E0FF7808AD
:10077600120C768FD6900265A3A3A3E0F5D753AFEC
:10078600FB438E1080067FFF227FFF22900260E0EF
:10079600FBA3E0FAA3E0F9900007120B32C454F071
:0D07A600FFE58454EF4FF5847F00227FFFB4
:0107B3002223
:0F20B4008F999000027401F0900002E070FA2200
:10206800120B19FF600C1220B4740129F9E43AFA32
:0320780080EE22D5
:0F20C3008F9B9000077401F0900007E070FA22E5
:10207B00120B19FF600C1220C3740129F9E43AFA10
:03208B0080EE22C2
:0F20D2008FAD90000C7401F090000CE070FA22BA
:10208E00120B19FF600C1220D2740129F9E43AFAEE
:03209E0080EE22AF
:0F20E1008F859000117401F0900011E070FA22C9
:1020A100120B19FF600C1220E1740129F9E43AFACC
:0320B10080EE229C
:05000600AE070220B46A
:03002300021DA615
:101DA600C0E0C083C082C0D075D000C00730982B79
:101DB600C298900003E0C39420748094804002E4AB
:101DC600F0900003E0FF04F074142FF582E4340071
:101DD600F583E599F09000047405F0309907C299EF
:101DE600900002E4F0D007D0D0D082D083D0E03289
:03004300021AFF9F
:101AFF00C0E0C083C082C0D075D000C007E59A3067
:101B0F00E02C539AFE900008E0C394807480948078
:101B1F004002E4F0900008E0FF04F074342FF582E7
:101B2F00E43400F583E59BF09000097405F0E59A25
:101B3F0030E108539AFD900007E4F0D007D0D0D0E1
:061B4F0082D083D0E032D9
:03008B000219F95E
:1019F900C0E0C083C082C0D075D000C007E5AC5438
:101A090001602C53ACFE90000DE0C39440748094A7
:101A1900804002E4F090000DE0FF04F074B42FF56B
:101A290082E43400F583E5ADF090000E7405F0E52D
:101A3900AC5402600853ACFD90000CE4F0D007D020
:081A4900D0D082D083D0E0323E
:03009300021A51FD
:101A5100C0E0C083C082C0D075D000C007E5845407
:101A610001602C5384FE900012E0C3942074809492
:101A7100804002E4F0900012E0FF04F074142FF5AE
:101A810082E43401F583E585F09000137405F0E5F7
:101A910084540260085384FD900011E4F0D007D013
:081AA100D0D082D083D0E032E6
:101608000216FEE493A3F8E493A34003F68001F2E4
:1016180008DFF48029E493A3F85407240CC8C333E3
:10162800C4540F4420C8834004F456800146F6DFB2
:10163800E4800B0102040810204080901DF6E47E2F
:10164800019360BCA3FF543F30E509541FFEE493A7
:10165800A360010ECF54C025E060A840B8E493A36E
:10166800FAE493A3F8E493A3C8C582C8CAC583CA99
:10167800F0A3C8C582C8CAC583CADFE9DEE780BE51
:011E400000A1
:100B1900BB010689828A83E0225002E722BBFE02DA
:090B2900E32289828A83E493220D
:100B3200BB010CE58229F582E5833AF583E0225078
:100B420006E92582F8E622BBFE06E92582F8E222C2
:0D0B5200E58229F582E5833AF583E49322DC
:100B5F00BB0110E58229F582E5833AF583E0F5F0D4
:100B6F00A3E0225009E92582F886F008E622BBFEB1
:100B7F000AE92582F8E2F5F008E222E5832AF583F7
:080B8F00E993F5F0A3E99322BC
:100B970075F008758200EF2FFFEE33FECD33CDCC15
:100BA70033CCC58233C5829BED9AEC99E582984098
:100BB7000CF582EE9BFEED9AFDEC99FC0FD5F0D675
:100BC700E4CEFBE4CDFAE4CCF9A88222B800C1B99F
:100BD7000059BA002DEC8BF084CFCECDFCE5F0CBDD
:100BE700F97818EF2FFFEE33FEED33FDEC33FCEB16
:100BF70033FB10D703994004EB99FB0FD8E5E4F9D1
:100C0700FA227818EF2FFFEE33FEED33FDEC33FCBD
:100C1700C933C910D7059BE99A4007EC9BFCE99AB1
:100C2700F90FD8E0E4C9FAE4CCFB2275F010EF2FF6
:100C3700FFEE33FEED33FDCC33CCC833C810D707F6
:100C47009BEC9AE899400AED9BFDEC9AFCE899F831
:0E0C57000FD5F0DAE4CDFBE4CCFAE4C8F922C4
:100C6500EB9FF5F0EA9E42F0E99D42F0E89C45F0E5
:010C7500225C
:100C7600E8600FECC313FCED13FDEE13FEEF13FF5C
:030C8600D8F12280
:100C8900BB010DE58229F582E5833AF583020D4A18
:100C99005007E92582F8020D3DBBFE07E92582F8D8
:100CA900020D56E58229F582E5833AF583020D6343
:100CB9007401FF3395E0FEFDFCA3A3A3E02FFFF031
:100CC900E582158270021583E03EFEF0E582158209
:100CD90070021583E03DFDF0E582158270021583EF
:050CE900E03CFCF022DC
:0C0CEE00ECF0A3EDF0A3EEF0A3EFF02279
:100CFA00A8828583F0D083D082120D11120D1112B1
:100D0A000D11120D11E473E493A3C583C5F0C583D5
:100D1A00C8C582C8F0A3C583C5F0C583C8C582C843
:010D2A0022A6
:1007B400E508245AF582E43402F583E00508229022
:1007C400025730070390025AE475F001120D7302C8
:1007D4000B192000E97F2ED2008018EF540F2490CB
:1007E400D43440D4FF30040BEF24BFB41A005003B8
:1007F4002461FFE50960021509050CE50C7002058A
:100804000B30070E900257E475F001120D73EF02DE
:100814000D2B0200067403D2078003E4C207F50817
:10082400900257120D8AE4F509F50BF50CE5096001
:10083400077F201207F780F5750AFFC201C200C2C4
:1008440002C203C205C206C2081207C3FF700D30FC
:1008540007057F00120808AF0CAE0B22B4255FC257
:10086400D5C2041207C3FF24D0B40A00501A75F08D
:100874000A780930D50508B6FF0106C6A426F62075
:10088400D5047002D20380D924CFB41A00EF5004E7
:10089400C2E5D204020A09D20180C6D20080C0D2C5
:1008A4000280BCD2D580BAD20580B47F201207F76B
:1008B4002002077401B5090040F11207B4FF1207C2
:1008C400F7020831D208D20680951207B4FB12074A
:1008D400B4FA1207B4F94A4B700679DA7A0A7BFF44
:1008E40020022EE509602A7E008E82758300120B99
:1008F4003260060EEE650A70F0C2D5EBC0E0EAC0C5
:10090400E0E9C0E0EE120A50D0E0F9D0E0FAD0E01D
:10091400FB120B19FF60AAEBC0E0EAC0E0E9C0E0FB
:100924001207F7D0E02401F9D0E03400FAD0E0FB5C
:10093400E50A0460DCD50AD980877BFF7A0A794C02
:10094400D202809C791080027908C206C20880080D
:10095400D2D5790A8004790AC2D5E50A047002F571
:100964000AE4FAFDFEFF1207B4FC7B08200113120F
:1009740007B4FD7B1030000A1207B4FE1207B4FF5F
:100984007B20EC3382D592D55013C3E43000069F0C
:10099400FFE49EFEE42001039DFDE49CFCE4CBF80F
:1009A400C201EC700CCFCECDCCE824F8F870F38003
:1009B40017C3EF33FFEE33FEED33FDEC33FCEB33C3
:1009C400FB994002FB0FD8E9EB300105F8D0E0C4F5
:1009D40048B201C0E00AEC4D4E4F78207B0070C253
:1009E400EAB50A0040BCC0E0120A52D0F0D0E020C0
:1009F4000104C4C0E0C4B201C0F01207E0D0F0D5D5
:100A0400F0EB020831120D9308CE53094858089FA1
:100A14004C089B42094C4F09544409544908B443B7
:080A2400095A55093E46093E3E
:100A2C0045093E470AFA5008A32D08A72E08CA2BE1
:100A3C0008AB2308C8200AE32A086348000008C250
:100A4C003F3F3F00790AA2D5200314300509B910A5
:100A5C00020404B9080104A2D520060250010420A6
:100A6C0002689202B509005034C0E07F20300319AF
:100A7C007F30A20272067205500F120AA9C202C27E
:100A8C0006C205C2087F30800F300503E9C0E012B2
:100A9C0007F7300503D0E0F9D0E0B509CC300517E5
:100AAC007F30B9100C1207F77F583004077F78801D
:100ABC0003B908031207F73002057F2D0207F77FF1
:100ACC00202008F87F2B2006F322920280CF286E7C
:100ADC00756C6C2900D2011207B43001F8C2017890
:100AEC000930D50108F60208632D50434958120706
:100AFC00B42403B405004001E4900AF5931207E80E
:0D0B0C00743A1207E8D20375090402094883
:100D2B00BB010689828A83F0225002F722BBFE01A7
:020D3B00F322A1
:0D0D3D00E6FB08E6F908E6FA08E6CBF82226
:0C0D4A00E0F8A3E0F9A3E0FAA3E0FB222C
:0D0D5600E2FB08E2F908E2FA08E2CBF8221D
:100D6300E493F8740193F9740293FA740393FB22E6
:100D7300F8E0FBA3A3E0F925F0F0E5821582700209
:070D83001583E0FA38F022AD
:090D8A00EBF0A3EAF0A3E9F0226A
:100D9300D083D082F8E4937012740193700DA3A3EF
:100DA30093F8740193F5828883E473740293686003
:060DB300EFA3A3A380DF03
:00000001FF
